:020000040800F2
:10000000000400201D8100081F8100081F810008D6
:100010001F8100081F8100081F8100081F81000840
:100020001F8100081F8100081F8100084DB70008CC
:100030001F8100081F8100081F8100081F81000820
:100040001F8100081F8100081F8100081F81000810
:100050001F8100081F8100081F8100081F81000800
:100060001F8100081F8100081F810008E9BC0008EB
:1000700011BD00083DBD000869BD000895BD000820
:10008000BDBD0008E9BD00081F8100081F810008F0
:100090001F8100081F8100081F8100081F810008C0
:1000A0001F8100081F8100081F8100081F810008B0
:1000B00019BC00081F8100081F81000839F30008DF
:1000C0004DF400081F8100081F8100081F810008EF
:1000D0001F8100081F8100081F8100081F81000880
:1000E0001F8100081F8100081F8100081F81000870
:1000F0001F8100081F8100081F81000815BE00082D
:100100001F8100081F8100081F8100081F8100084F
:100110001F8100081F8100081F8100081F8100083F
:1001200041BE000869BE000895BE0008C1BE0008B7
:10013000EDBE00081F8100081F8100081F81000814
:100140001F8100081F8100081F810008D1F80008E6
:1001500015BF000841BF00086DBF00081F810008DF
:100160001F8100081F8100081F8100081F810008EF
:100170001F8100081F8100081F8100081F810008DF
:100180001F8100081F8100081F8100081F810008CF
:100190001F8100081F8100081F8100081F810008BF
:1001A0001F8100081F8100081F8100081F810008AF
:1001B0001F8100081F8100081F8100081F8100089F
:1001C0001F8100081F8100081F8100081F8100088F
:1001D0001F8100081F8100081F8100081F8100087F
:1080000072B6374880F30888364880F309883648C6
:108010003649086040F20000CCF200004EF63471A0
:10802000CEF200010860BFF34F8FBFF36F8F40F2B5
:108030000000C0F2F0004EF68851CEF20001086058
:10804000BFF34F8FBFF36F8F4FF00000E1EE100AC8
:108050004EF63C71CEF200010860062080F31488D1
:10806000BFF36F8F02F054F802F044FC4FF055302C
:108070001F491B4A91423CBF41F8040BFAE71D49D6
:10808000184A91423CBF41F8040BFAE71A491B4ACF
:108090001B4B9A423EBF51F8040B42F8040BF8E721
:1080A00000201849184A91423CBF41F8040BFAE7F6
:1080B00002F010FD02F00CFD144C154DAC4203DA39
:1080C00054F8041B8847F9E705F0E4FF114C124D02
:1080D000AC4203DA54F8041B8847F9E702F0F9BC14
:1080E00000040020000C00200000000808ED00E063
:1080F000000000200004002084150108000C00206E
:10810000640D0020680D0020241B00200080000862
:1081100000800008008000080080000870E700F080
:1081200000F8FEE72DE9F04F2DED108AC1F80CD0D4
:10813000C3689D46BDEC108ABDE8F08F002383F331
:1081400011882846A047002002F048FFFEE702F011
:1081500027FF00DFFEE7000053B94AB9002908BF36
:1081600000281CBF4FF0FF314FF0FF3000F074B912
:10817000ADF1080C6DE904CE00F006F8DDF804E07E
:10818000DDE9022304B070472DE9F047089D04465D
:108190008E46002B4DD18A42944669D9B2FA82F2BA
:1081A00052B101FA02F3C2F1200120FA01F10CFAF6
:1081B00002FC41EA030E94404FEA1C48210CBEFB2E
:1081C000F8F61FFA8CF708FB16E341EA034306FBB7
:1081D00007F199420AD91CEB030306F1FF3080F046
:1081E0001F81994240F21C81023E63445B1AA4B293
:1081F000B3FBF8F008FB103344EA034400FB07F735
:10820000A7420AD91CEB040400F1FF3380F00A8175
:10821000A74240F207816444023840EA0640E41B6A
:1082200000261DB1D4400023C5E900433146BDE816
:10823000F0878B4209D9002D00F0EF800026C5E9B8
:10824000000130463146BDE8F087B3FA83F6002ED0
:108250004AD18B4202D3824200F2F980841A61EB48
:10826000030301209E46002DE0D0C5E9004EDDE766
:1082700002B9FFDEB2FA82F2002A40F09280A1EB4E
:108280000C014FEA1C471FFA8CFE0126200CB1FBA3
:10829000F7F307FB131140EA01410EFB03F088429C
:1082A00008D91CEB010103F1FF3802D2884200F229
:1082B000CB804346091AA4B2B1FBF7F007FB1011BB
:1082C00044EA01440EFB00FEA64508D91CEB040459
:1082D00000F1FF3102D2A64500F2BB800846A4EBB4
:1082E0000E0440EA03409CE7C6F12007B34022FA9F
:1082F00007FC4CEA030C20FA07F401FA06F31C43CE
:10830000F9404FEA1C4900FA06F3B1FBF9F8200CDA
:108310001FFA8CFE09FB181140EA014108FB0EF020
:10832000884202FA06F20BD91CEB010108F1FF3A70
:1083300080F08880884240F28580A8F1020861447C
:10834000091AA4B2B1FBF9F009FB101144EA01418A
:1083500000FB0EFE8E4508D91CEB010100F1FF3435
:108360006CD28E456AD90238614440EA0840A0FBCD
:108370000294A1EB0E01A142C846A64656D353D0A3
:108380005DB1B3EB080261EB0E0101FA07F722FAC7
:1083900006F3F1401F43C5E9007100263146BDE8F0
:1083A000F087C2F12003D8400CFA02FC21FA03F353
:1083B000914001434FEA1C471FFA8CFEB3FBF7F0D4
:1083C00007FB10360B0C43EA064300FB0EF69E42F9
:1083D00004FA02F408D91CEB030300F1FF382FD292
:1083E0009E422DD9023863449B1B89B2B3FBF7F63A
:1083F00007FB163341EA034106FB0EF38B4208D913
:108400001CEB010106F1FF3816D28B4214D9023E53
:108410006144C91A46EA004638E72E46284605E771
:108420000646E3E61846F8E64B45A9D2B9EB020842
:1084300064EB0C0E0138A3E74646EAE7204694E7D2
:108440004046D1E7D0467BE7023B614432E7304605
:1084500009E76444023842E7704700BF844641EAB6
:10846000000313F003036DD1403A41D351F8043BAC
:1084700040F8043B51F8043B40F8043B51F8043BFE
:1084800040F8043B51F8043B40F8043B51F8043BEE
:1084900040F8043B51F8043B40F8043B51F8043BDE
:1084A00040F8043B51F8043B40F8043B51F8043BCE
:1084B00040F8043B51F8043B40F8043B51F8043BBE
:1084C00040F8043B51F8043B40F8043B51F8043BAE
:1084D00040F8043B51F8043B40F8043B51F8043B9E
:1084E00040F8043B51F8043B40F8043B403ABDD20D
:1084F000303211D351F8043B40F8043B51F8043BAF
:1085000040F8043B51F8043B40F8043B51F8043B6D
:1085100040F8043B103AEDD20C3205D351F8043B3D
:1085200040F8043B043AF9D2043208D0D2071CBF09
:1085300011F8013B00F8013B01D30B880380604632
:10854000704700BF082A13D38B078DD010F00303A8
:108550008AD0C3F10403D21ADB071CBF11F8013B18
:1085600000F8013B80D331F8023B20F8023B7BE767
:10857000043AD9D3013A11F8013B00F8013BF9D292
:108580000B7803704B7843708B788370604670472C
:10859000830730B548D0541E002A3FD0CAB20346E4
:1085A00001E0013C3AD303F8012B9D07F9D1032CDC
:1085B0002DD9CDB245EA05250F2C45EA054536D91A
:1085C000A4F1100222F00F0C03F1200EE6444FEA52
:1085D000121C03F1100242E9045542E9025510321F
:1085E0007245F8D10CF1010214F00C0F03EB0212EA
:1085F00004F00F0C13D0ACF1040323F00303043395
:10860000134442F8045B9342FBD10CF003042CB1F9
:10861000CAB21C4403F8012B9C42FBD130BD644616
:108620001346002CF4D1F9E703461446BFE71A4677
:10863000A446E0E7032A70B515D940EA010C1CF006
:10864000030F04460B4621D1194620460E680568E3
:10865000B54204F1040403F1040317D1043A032AD8
:1086600020461946F0D8541EA2B100F1FF3C013952
:1086700001E0C3180CD01CF801EF11F8012F96454A
:10868000A4EB0C03F5D0AEEB020070BD541EECE77A
:10869000184670BD104670BD10F4805F10B500F430
:1086A000807300F4007400F4806100F400620DD067
:1086B000002B0CBF002010200CB140F0200009B1AD
:1086C00040F040000AB140F0800010BD181E18BFF5
:1086D00001200CB140F0020009B140F00400002A72
:1086E000F3D040F00800F0E7A0F58073B3F5F85F31
:1086F00010B50C4605D2FFF7CFFF2346BDE810406A
:1087000018470020F9E700000B4B10F0010F4FF065
:10871000080214BF1A835A8310F0020F4FF00402AC
:1087200014BF1A835A83044B10F0040F4FF0020257
:1087300014BF1A835A83704700000240C0F303330A
:10874000062BC2B213D094BF0E33063303F00F03CF
:10875000012B10D8F02A10D004D8E72A8CBF0020B3
:1087600001207047F42A14BF002001207047E72A37
:1087700003D9F12AF7E70020704701207047000075
:10878000034A012303FA00F013781843107070476E
:1087900078140020044A012303FA00F0137823EA36
:1087A00000001070704700BF7814002030B5094DEC
:1087B00001242B7804FA00F004FA01F10143C8B255
:1087C0001940884204FA02F206BF1343DBB2934316
:1087D0002B7030BD78140020054B064A1B781278A8
:1087E0009A4200D17047013303F00703F8E700BF56
:1087F000DD1A0020DC1A002010B5174B1B7893B14E
:10880000164B93F90030002B0DDAEF284FEAD00217
:1088100008D8134B134400F00702012090409A78C7
:108820001043987010BD0F494FF0FF32002311F82C
:10883000014BA042F6D0B2F1FF3F02D1002C08BF9D
:108840001A460133DCB2062C5BB2F0D1531CE9D0DE
:10885000034B1A449070E5E7500D00203E140020B1
:10886000EC0D0020EE0D002010B50A490B7823EA2C
:10887000000010F0070408700BD1984209D0064B95
:108880005B785B0705D5C008FFF784FF034B0C70CE
:108890001C8010BD301500203E1400203215002031
:1088A000024A137823EA000010707047DE1A002095
:1088B000034A13781BB100231370024A13807047D8
:1088C0003515002036150020E72850D8DF2807D8B6
:1088D000312865D00ED8292858D02A2867D070476B
:1088E000A0F1E003072B42D8DFE803F0154124296B
:1088F00033413D42392804D0822802D0352840D067
:108900007047334B1A7892075CD15B7813F0080FED
:1089100018BF292070472E4A1378D9074ED45278B1
:1089200012F0010F23D013F0100F08BFE32018BF7F
:1089300000207047264B1B7813F0040FF2E7244AFF
:10894000137859073CD45278D2073BD413F0100F58
:10895000EDE71F4B5A78910709D51B7813F0100FDC
:1089600008BFE720E3E71A4B1B781A07F6D47047D5
:10897000174A1378190727D452789107E6D5E420CF
:108980007047134B1B7813F0200FC1E7104B1A7878
:1089900092061BD45B7813F0080F18BF392070477C
:1089A0000B4B1B7813F0400F18BF2A207047084B61
:1089B0001B7813F0400F18BF3120704739207047E3
:1089C000E2207047E0207047E62070473520CEE770
:1089D0003E14002010B52F4C21784B0713D500F022
:1089E0001402A2F1040C00F01803DCF1000242EBC7
:1089F0000C02A3F1080CDCF1000343EB0C039A42D8
:108A000018BF80F00C000B0713D500F01402A2F180
:108A1000140C00F01803DCF1000242EB0C02A3F18D
:108A2000180CDCF1000343EB0C039A4218BF80F0F2
:108A30000C006478E30713D500F0110202F1FF3C4B
:108A400000F01803DCF1000242EB0C02A3F1080C69
:108A5000DCF1000343EB0C039A4218BF80F00900DD
:108A6000A30711D500F0110200F01803A2F11104C0
:108A70006242A3F1180C6241DCF1000343EB0C03EA
:108A80009A4218BF80F00900CB0648BF00F0E7000B
:108A900010BD00BF3E14002038B5FFF715FFB0F53C
:108AA000A44F044643D2B0F5A04F80F0AC80DF283D
:108AB00016D8CC2800F28A80A7280AD8A42878D80B
:108AC000012804D0031F9BB2A12B28BF00242046FD
:108AD00038BDA0F1A8039BB21A2B6FD90024F6E78A
:108AE000B0F5804F19D2B0F5005F80F09B80E72889
:108AF000EDD9A0F580739BB2B3F5F85FEED2C0F369
:108B00000720FFF767FF0546E0B2FFF7DDFE2D0205
:108B100005F4F855284384B2D9E7C0B2FFF7D4FE74
:108B200004F47064044344F42044A4B2CFE7B0F5E5
:108B3000A54F21D245F25F23984251D845F23F23F9
:108B400098420ED845F21F23984242D8C0F38503BD
:108B5000012400F00300844044EA431444F40D442B
:108B6000E3E7C0F38203012400F00300844044EAF9
:108B7000431444F40C44D8E745F2BF2398420AD882
:108B800045F29F23984200F01F0034D84AF2F404C3
:108B900044EA00249BE7A0F5A543403B9BB21F2B72
:108BA0009CD8040204F4F85444F4204444F0F00443
:108BB0008DE7A0F1240444F48044B6E75834214BF7
:108BC000E4B233F8144044F4884480E740F4A0440D
:108BD000ABE700F01F044AF2F10343EA042476E70E
:108BE000C0F38203012400F00300844044EA4314EC
:108BF00044F40A4499E7FFF7EDFE000200F4F8544C
:108C000044F4005463E700F01F00FFF7E3FEC306DF
:108C1000C4F3431448BF0001240200B2204340F4CF
:108C2000104078E7C0F30420FFF7D4FE0546E0B219
:108C3000FFF74AFE2D0205F4F855284340F4005092
:108C400069E700BF780901080020704700207047DD
:108C500030BFFDE700EB4003C3EB031300EB8300E1
:108C600003B2002B07DAB3F1800001D503F17F00D6
:108C700040F30720704703F18000F9E71A4B1B4AC5
:108C80001B781089D90709D5194B1B785843C0F3B5
:108C90008F007F2823D820B3C0B270479A0705D52C
:108CA000134B1B785843C0F34F00F2E75B0705D521
:108CB0000F4B1B7813FB00F080B2EAE70D4B1B78DB
:108CC000002BE6D00C4A0A491278097893423BBF40
:108CD0004843584311FB00F0B0FBF2F0ECE77F2073
:108CE00070470120704700BF26150020680D002046
:108CF0005A0D0020271500205B0D0020154B1B7816
:108D0000D90705D5144B1878800800B3C0B2704756
:108D10009A0703D5104B18784008F6E75B0705D58E
:108D20000D4B18787F28F0D97F2070470B4B1B78AC
:108D30005BB10B4A084912780878934236BF10FBA2
:108D400003F080B2B0FBF2F0ECE70120DEE7012097
:108D5000704700BF261500205E0D0020281500205A
:108D60005F0D0020CD2808B505D1FFF787FF4042F1
:108D7000294BD87008BDCE2802D1FFF77FFFF7E757
:108D8000CF2805D1FFF77AFF4042234B9870F1E7D7
:108D9000D02802D1FFF772FFF7E7D92804D1FFF7F7
:108DA000ADFF1D4B1871E5E7DA2803D1FFF7A6FFE9
:108DB0004042F6E7DB2805D1FFF7A0FF4042164B03
:108DC0005871D7E7DC2802D1FFF798FFF7E700F1E9
:108DD0002F03DBB2072B08D80F4A0123D13803FA3F
:108DE00000F0537818435070C4E7DD2805D10B4AD2
:108DF000137843F001031370BCE7DE2804D1074A5F
:108E0000137843F00203F6E7DF28B3D1034A13785F
:108E100043F00403EFE700BF1A15002026150020D9
:108E2000364BCD2893F902200AD193F9031000297B
:108E30000CDA0021D97052B9314A0021117006E0D4
:108E4000CE280DD193F903100029F2DC72B11A7902
:108E50005B7913435AB2002B4FD12A4B1A707047DB
:108E6000CF2806D1002AF1DA00229A7093F9032064
:108E7000E1E7D02802D1002AF6DCE7E7D92893F908
:108E8000041004D10029E1DD00211971DEE7DA28A0
:108E900002D10029DADAF7E7DB2893F9051004D1CB
:108EA0000029D3DA00215971D0E7DC2802D100294A
:108EB000F8DCCBE700F12F01C9B2072907D8D13878
:108EC00001218140587820EA01005870BEE7DD2872
:108ED00005D10D48017821F001010170B6E7DE28C7
:108EE00004D10948017821F00201F6E7DF28ADD16D
:108EF0000548017821F00401EFE770471A150020BA
:108F0000271500202815002026150020064B1A786A
:108F100012F0FE0F05D11A78012161F347021A7091
:108F20007047032AF7D87047D818002000B11047BF
:108F3000084700001D4930B5072201254FF4007491
:108F400005FA02F303400C8319D0002300BF00BFD1
:108F500000BF00BF00BF00BF0133062BF6D14C831A
:108F600000BF00BF00BF00BF00BF00BF00BF00BF09
:108F700000BF00BF00BF00BF013AE1D230BD00BF5B
:108F800000BF00BF00BF00BF00BF00BF00BF00BFE9
:108F900000BF00BF00BF4C8300BF00BF00BF00BFC9
:108FA00000BF00BF0133062BF6D1E5E70000024009
:108FB000B0F5F84F04D1034B1B68002B08BF00200D
:108FC000704700BF600D002010B5074B074C0848E4
:108FD000084900229A6101320A2A9C60D86019610E
:108FE00003F11C03F6D110BD3019002001DF000889
:108FF00041DF0008D5DF0008024B1A88024B1A80B7
:10900000704700BF680D0020020C00200F4B104A73
:1090100099880A20B1FBF0F111700E4AD9881170BD
:109020000D4A598911700D4A998911700C49DA89D4
:10903000B2FBF0F20A700B4A198A11700A4A598A77
:1090400011709A8A094B1A70704700BF680D002092
:10905000580D0020590D00205A0D00205B0D0020F6
:109060005C0D00205D0D00205E0D00205F0D0020D6
:10907000064A00231380064AD17909B99171117209
:1090800001330A2B02F10C02F6D17047F8140020CC
:109090002413002070B50F4C0F4B21780F4D1A7818
:1090A0000B469A4210D035F8136086420DD10C4A17
:1090B0000C2505FB00208B424FF00102827103D189
:1090C000134403F00303237070BD013303F0030363
:1090D000E7E700BFB8110020B9110020B01100204F
:1090E000241300200379194216D18378B3B1027A90
:1090F000120701EA030103D5081E18BF01207047BB
:1091000003F00F0001F00F0240EA131042EA1111C0
:10911000431A584258417047002070470120704759
:1091200002B1104770470000024B186808B103688D
:1091300018477047601200200B4B07B51A8882420F
:109140000ED01880094B1B6853B103228DF805001F
:10915000000A8DF80600DB688DF8042001A8984706
:1091600003B05DF804FB00BF6A1400206012002009
:109170000B4B07B51A8882420FD01880094B1B6829
:109180005BB104228DF80500000A8DF80600DB684B
:109190008DF804200DEB0200984703B05DF804FB46
:1091A0004014002060120020BFF34F8F0549064B8A
:1091B000CA6802F4E0621343CB60BFF34F8F00BF75
:1091C000FDE700BF00ED00E00400FA0542EA0122DD
:1091D000100A032811B214D00CD8012828D0022874
:1091E0000CD1154A5B231548002A4260036008BF72
:1091F0001046704721280DD0222812D000231A468D
:10920000F1E7CBB2032BF9D80D4A0E4952F82320CF
:10921000CB5CE8E7022BF1D80B4A52F82320092354
:10922000E1E7022BEAD8094A094952F82320EFE77F
:10923000084A1223D7E700BFCF090108D411002044
:1092400068090108AE090108B4090108C00901084C
:10925000CC0901082A0A01087047000090F84A105A
:10926000074A0229137807D1012B01D0062B05D11B
:10927000044B52781A707047024A1370704700BF4F
:10928000E41800201C140020014B1878704700BF20
:109290001C1400207047C368C269013BC360436966
:1092A000134482694361934224BF436A43610023AC
:1092B0008362036B03B118477047436902699A429E
:1092C00001D1C26822B9184650F8043B0B607047C0
:1092D00000231846FAE703691960C268013AC260C0
:1092E000C269134482690361934224BF436A0361E4
:1092F00000238362036B03B118477047C27A530996
:109300009B0003F1604310B503F5614302F01F04B5
:10931000012101FA04F4C3F88040C3F8804102F14E
:10932000604303F56143002283F80023837A104AE7
:109330009940136823EA01031360DAB24AB90D4A6F
:10934000116B21F400111163116D21F400111165ED
:10935000126D13F47F4F09D1064B1A6B22F4800271
:109360001A631A6D22F480021A651B6D10BD00BFCE
:10937000DC11002000380240436B4FF400421A60B9
:1093800000221A605A605A61036B1A68116821F052
:109390001F0111601168C907FCD4597A5A683D232E
:1093A0008B401360C36A1A68116821F01F011160B5
:1093B0001168C907FCD4597A5A683D238B40136061
:1093C0007047000011F00C0F10B504D072B60C4BB2
:1093D0000C4ADA65FEE7036B446B1A68116821F0EA
:1093E0001F0111601168C907FCD4597A5A683D23DE
:1093F0008B401360636843F40073636010BD00BF6B
:10940000680F00204D08010800EB810330B5DD68CE
:10941000AA691368136119B9402B84BF40231360F4
:109420006B8A1468426D1C44013CB4FBF3F4634343
:10943000033323F0030302EB411043EAC44343F038
:10944000C043C0F8103B2B6803F00303012B09B2A3
:109450000ED1D2F8083802EB411013F4807FD0F817
:10946000003B14BF43F0805343F00053C0F8003B6F
:1094700002EB4112D2F8003B43F00443C2F8003B38
:1094800030BD00EB810370B5DD68436D6C69266803
:1094900026614A0156BB1A444FF40020C2F8100955
:1094A0002A6802F00302012A0AB20ED1D3F8080892
:1094B00003EB421410F4807FD4F8000914BF40F08D
:1094C000805040F00050C4F8000903EB4212D2F87B
:1094D000000940F00440C2F80009D3F83408012222
:1094E00002FA01F10143C3F8341870BD19B9402ED6
:1094F00084BF4020206020682E8A8419013CB4FB80
:10950000F6F440EAC44040F000501A44C6E7F0B414
:1095100000EB81040789E468012564698D403D43BF
:10952000058123600023A2606360E360F0BCFFF765
:10953000A8BF13B5446BE36F1A681178042915D1DD
:10954000217A022912D11979128901238B40134201
:109550000CD101A904F14400FFF7AFFE024628B187
:10956000E46F019B21792068FFF7D1FF02B010BDA5
:1095700010B590F83430142B04462ED01CD8062B8E
:1095800005D001D81BB110BD093B022BFBD8636D80
:10959000D3F8002942F40012C3F80029D3F8002BB5
:1095A00042F40012C3F8002B63681B6813B1062154
:1095B00020469847062319E0152BE4D10B2380F8A9
:1095C0003430302383F3118800231A461946FFF7FD
:1095D0009EFF002383F31188D5E7C3689B695B680E
:1095E000002BD0D1036C03B19847002384F83430AA
:1095F000C9E74B6843608B688360CB68C3600B69C5
:1096000043614B6903628B6943620B680360704777
:1096100005480178052906D190F850300370436859
:109620001B6803B1184770478C0D0020F0B5254E1C
:109630000124376884403C42034640D106EBC30C0A
:109640003C43CCF804102049CCF808101F49346082
:109650000C6B1F4A44F400140C630C6D0C2545433D
:1096600044F400140C65096D51590C6824F01F0472
:1096700050190C600C6814F00104FBD10C2505FB9B
:1096800003233D225E7A5D68DB7AB2402A602122A4
:109690000C604A6103F1604202F56142502182F898
:1096A000001303F01F015B099B0003F1604303F506
:1096B000614301228A40C3F880211A60F0BD002076
:1096C000FCE700BFDC110020EC1A0020003802404B
:1096D0009C0B010803890A461BB94179008806F0F2
:1096E00079BE1846704708B5034608465988914226
:1096F00005D80A465968FEF7B1FE002008BD4FF0B4
:10970000FF30FBE7032A07B5084614D90B4A137844
:10971000527802F0010143EA0123C2F3400243EA16
:10972000422304220DEB02010193FEF797FE002075
:1097300003B05DF804FB4FF0FF30F9E73E14002062
:10974000074B1B78023043B1064B93F90030002BD6
:1097500003DA1E220021FEF71BBF0622FAE700BF34
:10976000500D00203E14002073B5302383F3118880
:109770002C4CD4F82C311A68117804294CD194F867
:10978000B810022948D11979128901238B4013425C
:1097900042D1D4F80431D4F8082193423CD1D4F812
:1097A0000021002A38D0D4F81C21002A34D0043AF1
:1097B000D21A31D01A60D4F800211B48013AC4F8FB
:1097C0000021D4F810211344D4F80C21C4F804313A
:1097D000934224BFD4F81831C4F80431002601A9FB
:1097E000C4F81C61FFF769FDD4F82C311A7E0546D8
:1097F00052B101981A693146121A2844FEF7C8FE80
:10980000D4F82C311B690193D4F82C01019B017908
:1098100000682A46FFF77BFE002383F3118802B01D
:1098200070BD00BF180C00200C0D0020406B06F02E
:10983000F8BBF8B5046805460E460027AC4200D1D7
:10984000F8BDE3683343E36023691E420AD06068D1
:10985000A368C2691343027DC3610A2A04D18269E5
:10986000134207D12468E9E70B2AFBD1826932EA67
:109870000303F7D1876106F0ABFBF3E708B50846B1
:10988000302383F311880A7D0023052A06D8DFE8F8
:1098900002F00B050503120E826913604FF0FF33CF
:1098A000836106F095FB002383F3118808BD82696C
:1098B0009368013393604268036813605A60EDE770
:1098C00037B50B0A044615468DF805108DF804309F
:1098D00001A964230222A02006F0D0FE6423AAB2CC
:1098E0002146A02006F002FF03B030BD07B50023DB
:1098F000014601220DF107008DF80730FFF7E0FF68
:109900009DF8070003B05DF804FB08B52520FFF7BC
:10991000EDFFFC2801D0002008BD2620FFF7E6FF60
:109920006B28F8D12720FFF7E1FFA0F1250358426B
:109930005841F1E708B52820FFF7D8FF08BD00001F
:1099400070B50B4D40F2294440F24D462046FFF7DA
:10995000CDFF0134B44205F8010BF7D1054D1524B4
:109960002B6903B19847013C05F11405F8D170BD8E
:10997000680D002040120108032838B515D80729C2
:1099800013D80F2A11D8520002EB411202EB002526
:1099900005F12900FFF7AAFF000284B205F12A00B1
:1099A000FFF7A4FF204380B238BD0020FCE707B5D5
:1099B0000023014602220DF10600ADF80630FFF744
:1099C0007FFFBDF8060003B05DF804FB08B500207A
:1099D000FFF7EDFF4FF6E663984203D1BDE808407C
:1099E000FFF793BF002008BD13B5042200230DEB41
:1099F000020008210193FFF763FF2420019CFFF779
:109A000075FF0146204602B010BD00007FB56422FC
:109A100000211248114E124DFEF7BAFD104878226F
:109A20000021FEF7B5FD40F2B14421460A2201A80B
:109A30002E60FFF745FF3046082201A9FEF70EFD14
:109A4000BDF80C30AB800A3440F215539C4206F14D
:109A50000A0605F10C05E8D104B070BD9C13002086
:109A600024130020F0B52B4C2B4E2C4F85B040F228
:109A7000155529460A2201A846F8044BFFF720FF96
:109A80000021102204F10800FEF782FDBDF8043029
:109A900023809DF80A30A370BDF80830E3709DF86C
:109AA0000B3023719DF80C309DF90D206371BDF8CA
:109AB0000630E3809DF80D30002AA8BF6761D90702
:109AC00044BF012222729A0742BF227A42F0020268
:109AD0002272580742BF227A42F00402227219070A
:109AE00042BF227A42F008022272DA0642BF227A8C
:109AF00042F0100222729B0642BF237A43F02003F9
:109B000023720A3540F255639D4204F11804B0D126
:109B100005B0F0BDBC15002038150020821A0020C9
:109B200038B590F8443003F07F02212A04467AD1F8
:109B300013F0800F90F8450031D002282AD0032876
:109B40001ED001286FD194F848305BB1022B94F8F5
:109B500046200DD0504BA3631A7094F84A30E3634B
:109B600000232CE04D4AA2630822E263236438BD3F
:109B7000022AEFD14A4BA3630623E3630023F5E7F0
:109B8000B4F84820002A4ED1464BA3630120E0637D
:109B90002264ECE7444BA3630120E063EEE70A286C
:109BA00038D00B280ED009283DD194F8482012F067
:109BB000FD0F38D13D4BA3630223E3633C4B236489
:109BC0000120D4E7B4F8483003BB94F84650354B35
:109BD000002D14BF012200221A7017D1324B1A78BF
:109BE000A2B1302282F311881878324BA0FB030314
:109BF0004FF47A72002300F2E7300021FEF7ACFA4E
:109C00002146800006F04AF985F311880023A363FA
:109C1000E363D4E72849244B097894F847201A7065
:109C2000CD09F3D1DCE7B4F8441040F281629142EF
:109C300014D194F84920616894F848304D6894F83C
:109C4000471043EA0223204694F84620A84708B963
:109C500000208CE74368A363036880E7174A92F803
:109C60009220002AF4D003F06003202BF0D194F866
:109C70004530212B4FF0000008D81F2B7FF677AF1F
:109C80000F4BA3630723E363206499E7222B7FF440
:109C90006EAFA063E063F7E7621A00201D14002096
:109CA00020150020500D002000140020E418002092
:109CB0005D920008A08601003E140020180C0020D0
:109CC000510D002038B50C46302383F311880B78F2
:109CD000042B03D0002383F3118838BD124B1B786B
:109CE000DB09F7D1114D2B78002BF3D0104B1B78EB
:109CF000002BEFD00B899B0705D40E4A08230121C6
:109D00002046FFF704FC28780B4BA0FB03034FF41D
:109D10007A72002300F2E7300021FEF71DFA214697
:109D2000800006F0BBF8D5E73E14002000140020A8
:109D3000500D00201D140020A0860100F0B500EB9E
:109D4000810385B09C6905460E465CB3302383F3DE
:109D5000118805EB8607201D0821FFF76AFDFB68C7
:109D60005B691B6804F144007BB1236D226E019096
:109D700001332365A36D1344E26DA365934224BFB1
:109D8000A36EA36506F032F9019803A9FFF795FACF
:109D9000024648B1039B31462846FFF7B8FB002333
:109DA00083F3118805B0F0BDFB685A691268002A78
:109DB000F5D01B8A013B1342F1D1E36F1B7E002BD0
:109DC000EDD105F14402E6E7093110B550F8214024
:109DD0002CB3302383F3118804216018FFF729FD89
:109DE000E26F1368527903EB820304F10C00DB6825
:109DF0009B695A68E3691A60A2690132A261A26A8A
:109E00001344626AE361934224BF236BE36106F06B
:109E1000EDF8204606F005F9002383F3118810BD04
:109E2000054BD9680875186802681A6053600122EA
:109E30000275D860FEF776B9680F0020302383F3EF
:109E40001188104B5B6813F4006317D0F1EE103AE1
:109E5000EFF30983683B4FF08072DA610A4AD26BF4
:109E60001A6683F30988094A1168D268896892687A
:109E700091428CBF064A074A9A61704783F3118862
:109E8000704700BF00ED00E000EF00E0680F002029
:109E90004F810008528100082DE9F84300EB81064C
:109EA00007465069F2600C4615460FFA81F818B162
:109EB00014220021FEF76CFBA86918B114220021BE
:109EC000FEF766FBF2687D6D166806F00306731EEA
:109ED000022B05EB44134FF00001C3F8101B4FF0A9
:109EE000010104F1100398BFB60401FA03F391696C
:109EF0008EBF354E06F1805606F5004660010029FA
:109F00003ED0B2F812C004F1580149014CEA060CE7
:109F100045F801C0D5F81C180B43C5F81C382B18A0
:109F20000021C3F8101953694FF00109611E09FAA5
:109F300004F993B3138A928B9B08012A88BF534379
:109F4000FA6D981842EA034301F1400205EB8202E0
:109F5000F86507EB880753602146284606F02EF87F
:109F6000FB681B8A43EA8453483464011E432E5124
:109F7000D5F81C3849EA0303C5F81C38BDE8F88356
:109F800005EB481CDCF8001B21F40041CCF8001B59
:109F9000D5F81C1821EA0303BFE704F13F0305EBE2
:109FA00083030A4A5A6005EB48172146284606F003
:109FB00005F8D7F8003923F40043C7F80039D5F87D
:109FC0001C3823EA0903D7E70080001000040002D0
:109FD00037B5052977D8DFE801F05A76035A5A7861
:109FE000302383F31188424C424A01900121FFF74C
:109FF00053FF414A01980321FFF74EFF94F8901058
:10A00000019804F14402FFF747FF94F89210019879
:10A0100019B104F16802FFF73FFF0025D4F8E030E2
:10A020003648C4F8D030C4F8CC30C4F8C850C4F8AE
:10A03000E450C4F8E85005F0E5FFD4F81431C4F852
:10A0400000312F48D4F81831C4F80831C4F804316D
:10A0500084F8C450C4F81C51C4F8205105F0D2FF54
:10A060000121284884F8FC50FFF7E3FB264805F05F
:10A07000D8FF85F31188254B1B7813B1052005F017
:10A08000F1FF022003B0BDE8304005F0EBBF084609
:10A0900005F0E8FF302383F31188154C022104F109
:10A0A000B400FFF7C6FB012504F1BC0084F8C450DE
:10A0B00005F0A8FF04F1F40084F8FC5005F0A2FFBD
:10A0C000002383F3118803B030BD302383F311885C
:10A0D000074C012104F1B400FFF7ABFB002384F827
:10A0E000C43084F8FC3083F311880520CAE700BF30
:10A0F000180C0020580D010870140108D40C002021
:10A100000C0D0020CC0C0020C80C0020691400208D
:10A110007047000037B5ADF80400C0F307200728EA
:10A120001ED89DF804200F2A1AD802EB001302F063
:10A13000070201209040C3F3CF030A4A03EB430315
:10A14000C0B21344002413F8015F21FA04F242F371
:10A1500000026A40024001346A40032C1A70F2D1B6
:10A1600003B030BDFB18002013B5ADF80400C0F3F8
:10A17000072007281BD89DF804300F2B17D803EBB6
:10A1800000100C4CC0F3CF0000EB40000022044450
:10A1900003F007011046A35CCB4003F0010393409A
:10A1A00001321843032AC0B2F5D102B010BD00201D
:10A1B000FBE700BFFC18002010B5124B1B789BB1C9
:10A1C000114B93F90030002B0EDAEF284FEAD00242
:10A1D00009D80E4B134400F0070001228240987802
:10A1E00020EA0200987010BD094A0623002112F8E7
:10A1F000014B013BA04208BF02F8011C13F0FF0312
:10A20000F5D1F0E7500D00203E140020EC0D0020A9
:10A21000EE0D0020024B1A7810431870704700BFF3
:10A22000CC180020024A137823EA0000107070470F
:10A23000CC18002017B4104BADF804101B68CBB934
:10A240009DF805109DF80420F02908D1F02A01D1CD
:10A250000A4B1B88184603B05DF8044B704707296A
:10A26000F8D80F2AF6D80328F4D803B05DF8044BC9
:10A27000FFF782BB0023EDE7881A0020961200202A
:10A280007FB5104BADF804001E780F4B1B780324EC
:10A290001E4346FA04F3DB07E5B205D4013CF8D2CD
:10A2A0000025284604B070BDBDF80430ADF80C3070
:10A2B00003992846FFF7BEFFFEF7EEFB80B20128A8
:10A2C000ECD0EEE778140020C51100201FB5ADF8E2
:10A2D00004000198FFF7D4FFBDF80430ADF80C304E
:10A2E0000399FFF7A7FF05B05DF804EBFEF7D4BBB9
:10A2F00008B50346007958B1188928B1FEF7CCFBA0
:10A30000BDE80840FEF71ABA1888FFF7DFFFF7E745
:10A3100008BD000030B50122C0F30315074C00F062
:10A320000F00824034F9153012B219B1134324F8EA
:10A33000153030BD23EA0203F9E700BF400F0020CB
:10A3400008B50346092B084608D80A2240F24D41B9
:10A3500002FB0311FFF7B4FA002008BD4FF0FF30F5
:10A36000FBE7000070B5302383F311884FF0804382
:10A37000114812495C6A03680A68E41AA242104A4A
:10A380000AD9A3F58333E03B036010680D4B04F555
:10A3900083340344E03413600C601668002181F3B9
:10A3A00011880948094A4FF47A750023E4FB050136
:10A3B000FDF7D2FE304470BD5C1A002070140020FE
:10A3C0002C15002088598F029F860100A08601006D
:10A3D00010B5074C608850B1FFF7C4FF054B1B88D0
:10A3E000C01A638880B283428CBF0020012010BD58
:10A3F000680D00203615002070B52D4B2D4A1B78B6
:10A4000012782D4C2D4D134323702B78FBB12C4B20
:10A410005B8823B1FFF7DCFF08B1FEF749FA237828
:10A420002A7813432370274B1B78002B36D0264BFA
:10A4300093F90030002BACBF06231E2323490022D2
:10A44000013BDBB2FF2B2BD10AB1FEF731FA204BD7
:10A4500025781B781F49184825EA03051E4B1B78F1
:10A4600020221D432570FEF7E5F800B31249194874
:10A470002022FDF7F3FF194B1B68C3B1114A127874
:10A480003AB1114A92F90020002ABEBF0622657037
:10A490002270BDE870405B68074818470623CDE787
:10A4A00011F8010B0028CBD00132D2B2C8E770BD41
:10A4B000CC180020DE1A0020EC0D002035150020FD
:10A4C000680D0020500D00203E140020EE0D0020ED
:10A4D0002C19002049140020DF1A002060120020EF
:10A4E00008B528B1FFF796FEBDE80840FFF784BF26
:10A4F00008BD000028B1034B1A7810431870FFF70D
:10A500007BBF7047DE1A002008B528B1FFF78AFE2E
:10A51000BDE80840FFF770BF08BD08B528B1FEF7D9
:10A52000BFF9BDE80840FFF767BF08BD0F4908B590
:10A530000B7802206FF3C3030B70FEF7B1F90B78B1
:10A54000D80605D56FF3041302200B70FFF762FEE7
:10A550000B789A0605D56FF3451320200B70FFF793
:10A5600059FEBDE80840FFF747BF00BF000C0020C0
:10A5700010B5044602698169FEF7D2FDE078FEF766
:10A580008FF92079FFF74EFEFFF736FF0023236097
:10A59000A38010BD43799A0710B5044611D40F4A21
:10A5A00043F0020311784371C37800790B431370B1
:10A5B000FFF730FEFFF720FFE268A1692046FEF7B3
:10A5C000AFFD074B00221A806379DB0704D42046D5
:10A5D000BDE81040FFF7CCBF10BD00BFDE1A002061
:10A5E000320F0020094A5278520708B50AD5084BA5
:10A5F00041EAC0011970FEF7C3F8FFF7B3FE054B3F
:10A60000188008BDBDE80840FEF7BAB83E14002027
:10A61000301500203215002008B5074A1378034290
:10A6200008D023EA0000107010B1FFF79BFE80B243
:10A63000024B188008BD00BF3515002036150020DC
:10A6400038B5074B5B785B07044608D5054D2B787A
:10A65000834204D0FFF786FE034B2C70188038BD70
:10A660003E140020351500203615002010B5FFF7E8
:10A6700079FE0D4BDA7899780A4318BF0B4A19799D
:10A6800080B218BF10805A790A431CBF084A108054
:10A69000084A126832B102211970BDE8104093686F
:10A6A0000148184710BD00BF1A150020741400207F
:10A6B000761400206012002010B50446002859D0FE
:10A6C000031FDBB2A02B27D82B4B1B78A3B12B4B3E
:10A6D00093F90030002B0FDA294B03EBD00300F085
:10A6E00007019A7801238B401A420ED02046FFF7CB
:10A6F00063FDFFF781FE08E0224A002312F8011BE8
:10A700008C42F3D00133062BF8D12046FEF774F8C3
:10A71000BDE81040FFF770BE00F12003DBB2072B4D
:10A7200007D800F007040120A040C0B2FFF772FD77
:10A73000EEE700F15B03DBB2022B05D82438BDE85D
:10A74000104080B2FEF7F8BC00F15803DBB21A2BC0
:10A7500006D80D4ABDE8104032F81300FEF708BDD8
:10A760003334E4B2122C05D8FEF7FCFABDE81040F1
:10A77000FFF77CBF10BD00BF500D00203E1400202D
:10A78000EC0D0020EE0D002078090108A0F1E00397
:10A79000072B10B5044600D940B905492046FDF7FE
:10A7A000A3FFE0B2BDE81040FFF786BF0149F6E71E
:10A7B000E1A40008F5A4000808B50346A0B3021FF1
:10A7C000D2B2A02A05D8FFF7F7FCBDE80840FFF792
:10A7D00013BE00F12002D2B2072A07D800F0070307
:10A7E00001209840C0B2FFF71DFDEEE700F15B02CB
:10A7F000D2B2022A04D8BDE808400020FEF79CBC73
:10A8000000F15802D2B21A2A04D8BDE8084000204C
:10A81000FEF7AEBC3333DBB2122B05D8FEF700FBDC
:10A82000BDE80840FFF722BF08BD000010B5044690
:10A83000C0B2FFF7C1FFA4F1E003072B00D92CB988
:10A8400003492046BDE81040FDF74EBF0149F8E737
:10A8500009A500081BA500080F4B104810B50024DF
:10A860001C70FEF76DFF2046FEF766FC2046FEF7E3
:10A870007FFC0B4B1C70FFF7BFFD214609480622E9
:10A88000FDF786FE084B1C70084B1C70084B1C70B3
:10A89000BDE81040FFF7EABECC180020EC0D002008
:10A8A000DE1A00201A150020271500202815002088
:10A8B00026150020F8B50B4B0B4E1F680B4D0446B8
:10A8C000FFF750FDC01BB0F5FA7F06D237604FF49A
:10A8D000FA732B60064B1C80F8BDFFF743FD322353
:10A8E0003060F6E744140020CC110020C81100208D
:10A8F000D0110020684A08B552F8041C674B9942F1
:10A9000030D1002342F8043C72B6BFF34F8FBFF33F
:10A910006F8F634A516A21F480315162D2F89410EA
:10A9200021F00101C2F894104FF0E0224FF0FF3106
:10A930001361936153619A0002F1604202F5614232
:10A940000133082BC2F88010C2F88011F3D1002324
:10A9500083F31488534B1A6882F3088862B65B68E5
:10A960009847FEE7504A51491369514843F01F0385
:10A970001361136923F01F0313611369136B43F011
:10A980001F031363136D43F01F031365136DFEF76D
:10A9900030FE1C3100F58060FEF72BFE1C3100F507
:10A9A0008060FEF726FE1C3100F58060FEF721FE78
:10A9B0001C3100F58060FEF71CFE1C3100F5406084
:10A9C000FEF717FE4FF0805313643A4B4FF40041EB
:10A9D0001960136843F00103136013689907FCD5ED
:10A9E000936823F0030393602F4B9A6812F00C02D4
:10A9F000FBD1196801F0F90119609A601A6842F4F4
:10AA000080321A601A689203FCD55A6F42F0010234
:10AA10005A67254B5A6F9007FCD5274A5A601A6827
:10AA200042F080721A60234A53685904FCD51E4BC9
:10AA30001A689201FCD5214A9A600322C3F88C203F
:10AA40001F4B1A681F4B9A421F4B21D1144A1168A1
:10AA50001E4A91421CD14FF481721A601A4A13683F
:10AA600003F00F03022BFAD10F4B9A6842F0020257
:10AA70009A609A6802F00C02082AFAD15A6C42F4E1
:10AA800080425A645A6E42F480425A665B6E08BD38
:10AA900040F20272E1E700BF00000120EFBEADDE30
:10AAA00000ED00E00000FF1F00380240AC0C010880
:10AAB0000000024000700040042A4107001088385E
:10AAC000002004E011640020003C024041C20F411C
:10AAD0007047FEE770B5144C082560682368A268CB
:10AAE000043B01468A4219D8D31C1B1AC11E23F00D
:10AAF00003038A4238BF00231844E368DA1C121AA1
:10AB0000C11E22F00302994288BF00220021FDF7F6
:10AB10003FFD013D04F11004DFD170BD53F8046F17
:10AB200041F8046BDEE700BFE4130108034A5168F3
:10AB300053685B1A9842FBD8704700BF001000E0D2
:10AB400010B503689C68A2420CD85C688A600B60F0
:10AB50004C602160596099688A1A9A604FF0FF33FF
:10AB6000836010BD1B68121BECE70000022910B5C2
:10AB700038BF022102234FF0804442186263626AA8
:10AB8000101A814203D8591C0B461046F5E7022BD8
:10AB900081BF034AD36A43F00103D36210BD00BFF3
:10ABA000680F0020194A1369984210B40FD0036847
:10ABB000416884680B60596099682144996000235A
:10ABC00003604FF0FF3393615DF8044B7047134609
:10ABD000016843F8101F00244B600460116999421A
:10ABE00003D14FF08043DC60EEE78B68806803445C
:10ABF0008B604FF08041486AD169421A9342E3D991
:10AC0000091A5DF8044B1944FFF7B0BF680F002024
:10AC100030B50E4BDD684B1C87B0044612D00C4B90
:10AC20000393684600230593049505F00DF920462B
:10AC3000FFF7F6F8009B13B16846FFF7B3FFA8696A
:10AC400007B030BDFFF7ECF8F9E700BF680F002050
:10AC50007D980008054BDB6821B1036098610320F3
:10AC6000FFF7D6BF4FF0FF30704700BF680F0020DE
:10AC700037B5134604460D46302282F3118810483A
:10AC80000278042A04D0002383F3118803B030BD76
:10AC900001890122A2400A420CD000EB84004FF44B
:10ACA0007A71C268019350690C30FFF7D3FF01300D
:10ACB000019BE8D002482A462146FEF728FCE2E73D
:10ACC0008C0D002007B50E4B1B78014663B901902F
:10ACD00008220120FFF7CCFF01990A482022FDF746
:10ACE000BDFB03B05DF804FB074B019093F9003006
:10ACF000002BABBF0822202201200320EAE700BF7F
:10AD0000500D00201D1400203E14002007B5014600
:10AD1000019006220320FFF7ABFF019903480622AA
:10AD2000FDF79CFB03B05DF804FB00BF201500207D
:10AD3000032201461046FFF79BBF000070B5114E7D
:10AD400004460D46E3683BB123691A1DA262E2691D
:10AD50001344E36200200EE0237A6BB9F36875B107
:10AD600062681C605A602946136004206360FFF724
:10AD70004FFF0028E6DA70BD6FF00100FBE74FF0EF
:10AD8000FF30F8E7680F002070B530230D46044609
:10AD9000114683F31188866A2EB9FFF7CFFF10B1F1
:10ADA00086F3118870BDA36A1D70A36AE26A01333D
:10ADB0009342A36204D3E16920460439FEF78BFA7B
:10ADC000002080F31188EDE74FF0FF324430FFF7A9
:10ADD000DBBF4430FFF7D8BF2DE9F84F04460E46DD
:10ADE000904699464FF0300A8AF311880025AB4609
:10ADF000A76A4FB949462046FFF7A0FF20B187F365
:10AE000011882846BDE8F88FE76AA06A3A1AA8EBCD
:10AE10000507974228BF1746402F18D931464022D0
:10AE2000FDF71CFBA36A40334036A3624035A26A9B
:10AE3000E36A9A4204D3E16920460439FEF74BFAEB
:10AE40008BF311884545DCD28AF31188D0E731466F
:10AE50003A46FDF703FBA36A3B443E44A3623D44EC
:10AE6000E5E74FF0FF334430FFF7B6BF4430FFF75C
:10AE7000B3BF000070B5114E04460D46E3683BB108
:10AE80006269131D1268A3621344E36200200EE09E
:10AE9000237A6BB9F36875B162681C605A60294601
:10AEA000136004206360FFF7B3FE0028E6DA70BD8C
:10AEB0006FF00100FBE74FF0FF30F8E7680F00206C
:10AEC00070B53023044683F31188866A3EB9FFF7D4
:10AED000D1FF054618B186F31188284670BDA36AD4
:10AEE000E26A13F8015BA362934202D32046FEF7A5
:10AEF000D2F9002383F31188EFE74FF0FF310C30D4
:10AF0000FFF7DEBF0C30FFF7DBBF2DE9F84F04463B
:10AF10000E46904699464FF0300A8AF31188002574
:10AF2000AB46A76A4FB949462046FFF7A3FF20B1B9
:10AF300087F311882846BDE8F88FE76AA16A7A1A74
:10AF4000A8EB0507974228BF1746402F16D9304671
:10AF50004022FDF783FAA36A40334036A3624035AE
:10AF6000A26AE36A9A4202D32046FEF794F98BF371
:10AF700011884545DED28AF31188D2E730463A4639
:10AF8000FDF76CFAA36A3B443E44A3623D44E7E705
:10AF90004FF0FF330C30FFF7B8BF0C30FFF7B5BFF1
:10AFA0000D4B1868D968026810B453601A6001220A
:10AFB0000275D86000230B758A680B691B689C6852
:10AFC0009442FBD85A680B604A605DF8044B1160EC
:10AFD0005960FDF7A7B800BF680F0020302383F346
:10AFE0001188034BDB6898610F20FEF719BF00BF83
:10AFF000680F002008B50146302383F3118808202C
:10B00000FFF706FE002383F3118808BD38B50A4B0D
:10B0100039280CBF1C8CDC8B0546FFF74DFB24B98F
:10B020002846BDE83840FFF7C7BB6420013CFFF766
:10B03000E1FFA4B2F3E700BF680D00202DE9F04165
:10B0400080468AB017460E4606F01F04C4F120045D
:10B05000330ABC428DF8043028BF3C468DF80560A9
:10B060000023DDB2A54203F1010311DBA21C64231E
:10B0700092B201A9A02005F001FB4FF4FA70FFF78E
:10B08000B9FF3F1BA0442644DED10AB0BDE8F081E1
:10B0900005F128026A4418F8051002F8221CE0E7BE
:10B0A00037B50C460546FEF721FCA04207D0012229
:10B0B00029460DF107008DF80740FFF7BFFF03B0E9
:10B0C00030BD10B5041E14BFFC21FF212520FFF761
:10B0D000E7FF002C14BF6B21FF212620FFF7E0FFC4
:10B0E000002C18BF2521BDE8104008BFFF212720F4
:10B0F000FFF7D6BF70B5094D40F2294440F24D46E6
:10B100002046FEF7F3FB15F8011B814202D02046D2
:10B11000FFF7C6FF0134B442F2D170BD680D0020C4
:10B1200008B54388934207D81A464068FDF796F958
:10B13000FFF7E0FF002008BD4FF0FF30FBE70328DA
:10B1400038B51D4614D8072912D80F2A10D8520036
:10B1500002EB411202EB0024190A04F12900FFF767
:10B160009FFFE9B204F12A00BDE83840FFF798BF1D
:10B1700038BD10B540F25564204600210134FFF778
:10B180008FFFB4F5005FF7D110BD37B50C4605460B
:10B19000FEF70DFCA04207D0022229460DF1060061
:10B1A000ADF80640FFF74AFF03B030BD094A08B5C5
:10B1B0005378C3F3800181420BD060F38203537054
:10B1C00004201188FFF7E1FFBDE808400220FDF7E9
:10B1D0004BBB08BD3E140020032A07B519D9042231
:10B1E0000DEB0200FDF73AF9FFF736FB0A4A019929
:10B1F000138823F47F7323F00303C1F30901194378
:10B200001180042089B2FFF7C0FF002003B05DF871
:10B2100004FB4FF0FF30F9E73E14002008B5184B4F
:10B22000AF221A8041F288325A800A229A805A81CB
:10B23000DA8128229A823222DA8208201421C82256
:10B24000D980188158821A83002005221E219981F5
:10B25000588350219A831982D883198483F8222035
:10B26000FFF748FFFFF7F8FA064B4FF480611980AB
:10B270000420FFF78AFFBDE80840FEF761BB00BF6E
:10B28000680D00203E1400202DE9F04F364FDFF806
:10B29000DCA0D7F8008001238DB03B600024D146AC
:10B2A00000265FFA84FB13E0032C18BF39F8153031
:10B2B0000191EAB208BF012358460135FFF73FFF6D
:10B2C000102D0199F0D10136082E09F1200902D084
:10B2D0000025F1B2E8E70134042C0AF5807ADED1CA
:10B2E000FFF79CFF0023ADF82430ADF82630ADF811
:10B2F0002830ADF82A30C823ADF82C3040F24D4448
:10B3000040F2B14521460A2209A80A34FFF796FE09
:10B31000AC42F7D10023CDE90633ADF8203040F23E
:10B32000155521460A2206A80A34FFF787FEAC42CB
:10B33000F7D10023049303938DF814304FF6FF7375
:10B34000ADF8103007238DF8153040F255652146D1
:10B350000A2203A80A34FFF771FEAC42F7D1C7F8FE
:10B3600000800DB0BDE8F08F600D0020400F010897
:10B3700008B50020FFF7A5FE28200021FFF790FE6A
:10B38000FFF782FFFFF7F5FEBDE808400120FFF759
:10B3900098BE37B5042200230D46044601460DEB46
:10B3A00002000193FEF78CFA019B9D4206D0042215
:10B3B00021460DEB02000195FFF740FE03B030BDC2
:10B3C00010B50C46FDF7A2FD01460820FFF7E1FF8E
:10B3D000E1B22420BDE81040FFF762BE044B054AED
:10B3E0001A6000221A71D3E90001FFF7E9BF00BF1C
:10B3F000D81800200300FFFF044A13790BB1013B6A
:10B400001371D2E90001FFF7DBBF00BFD81800209D
:10B41000044A1379022B9CBF01331371D2E9000156
:10B42000FFF7CEBFD818002010B588B02022002129
:10B430006846FDF7ADF800242146202268462034F6
:10B44000FFF7FCFDB4F5005FF6D108B010BD0000B9
:10B4500090B585B000AFFFF7E7FF4FF6E66100203B
:10B46000FFF793FE00210220FFF71AFE00210320C0
:10B47000FFF716FE264B00244FF4A05104201C7049
:10B48000FFF783FE21460620FFF70AFEFF21072073
:10B49000FFF706FE21460820FFF77BFF2146242008
:10B4A000FFF7FEFD21461720FFF7FAFD21460C208D
:10B4B000FFF7F6FD21460D20FFF7F2FD00220023E5
:10B4C000C7E900230822B8181821FEF7F9F9082265
:10B4D000B91838466C46FDF7ADF820B1082218219E
:10B4E0003846FFF7ABFD0021A5462020FFF751FFAE
:10B4F0000020FFF7E6FDFFF73BFF00210F20FFF7DD
:10B5000048FF00211320FFF744FF1437BD4690BDCC
:10B51000C511002003682BB1002202609961184612
:10B5200004F056BD7047000011F00C0F38B504D080
:10B5300072B6154B154ADA65FEE7C26A436B1168AD
:10B540000C6824F01F040C600C6814F00104FBD19B
:10B55000557A51683D22AA400A605A6822F4805206
:10B560005A601A6822F480621A601A6842F4007203
:10B570001A60302383F3118821461C30FFF7CAFF7D
:10B5800084F3118838BD00BF680F00204D08010802
:10B590002DE9F843404DD5F8548008EB401304469C
:10B5A000D3F80899C3F8089919F0010F4FEA40162B
:10B5B00019D0D8F81038DB0715D5871C05EB8703A1
:10B5C00059684B6918681A6990422BD2121A0027E1
:10B5D0001A605F60302383F3118821462846FDF707
:10B5E00050FF87F3118819F0800F19D0D8F834383C
:10B5F0000120A040034213D005EB84036D6DDF688A
:10B600000134E4B27B6905EB04342E4459681A68AE
:10B61000914222D3D5F8343823EA0000C5F8340823
:10B62000BDE8F883012303FA04F22B8923EA02031D
:10B630002B818B6813B1214628469847302383F32A
:10B64000118805EB870700217B6858690C30FFF7EC
:10B6500061FF002383F31188C5E7521A398A8A42B1
:10B6600028BF0A46D6F8181989B2B2EB810FD7D88D
:10B670009968A1F1040E5EF804CFC4F800C0A1EBF4
:10B680000E0C9444BCF1040FF5D81144996059682C
:10B690000A445A60BAE700BF8C0D0020F8B52A4D65
:10B6A0006E6D06EB40130446D3F8087BC3F8087BA5
:10B6B00038070AD5D6F81438190706D505EB8403E0
:10B6C0002146DB6828465B689847FA0720D5D6F8FC
:10B6D0001438DB071CD5A61C05EB86035968C4B9D2
:10B6E0008B69488A5A68B2FBF0F700FB172282B9CF
:10B6F00018681A6990420CD2121AC3E90024302348
:10B7000083F3118810482146FDF77EFE84F31188EB
:10B71000F8BD012303FA04F26B8923EA02036B816B
:10B72000CB6813B1084821469847302383F311882A
:10B7300005EB86056B68986941680C30FFF7EAFEF7
:10B74000002383F31188E3E78C0D0020EFF30983D6
:10B7500005494A6B22F001024A63683383F3098882
:10B76000002383F31188704700EF00E0F8B504462A
:10B77000302383F311880778456B4160012F3AD15C
:10B7800040F25643836240F2164343624E4B984266
:10B7900031D14E4E4E49336A43F400133362336A5B
:10B7A00023F4001333620020336AFDF73FFF494959
:10B7B000E0620620FDF73AFF336C206343F4001388
:10B7C0003364336E43F400133366336E424B5022BE
:10B7D0004FF0004183F81F23C3F88011196083F8EC
:10B7E0002023C3F884715F60626A3C49A36A0A43FC
:10B7F0000B436262A362E36A616B1A68606805F1D9
:10B8000010039360226B126893604FF400432B6027
:10B810004FF4106200232B606A604E684268077A1A
:10B8200026F03F063604360C4E604E6846F02A0677
:10B830004E602B4EB2421FDC52002A4BB3FBF2F398
:10B840002B22C3F30B030A62CB6102780B68022A36
:10B850009BB22FD0032A33D0012A02D123F00A034E
:10B860009BB20B602B6843F001032B600223237013
:10B87000002080F31188F8BD1B4EB242E4DC022F99
:10B880000AD102EB4206174AB2FBF6F292B21A4311
:10B8900042F400430D22D6E7032F01BF192353437F
:10B8A000104AB2FBF3F212BF40F6FF7292B24FF4AD
:10B8B0008043ECE723F008039BB243F00203D0E798
:10B8C00043F00A03CDE700BFEC1A00200038024025
:10B8D00029B50008C593000800E100E0000003025C
:10B8E000A086010080DE8002801A060010B5302399
:10B8F000044683F311880378012B27D0FDF73CFD24
:10B90000006BFDF7FBFCE06AFDF7F8FC134B00222F
:10B910009C422263E26219D1114B4FF00041C3F8FF
:10B920008010C3F88011012183F81F23C3F884100D
:10B93000C3F8841183F820230A4B1A6C22F40012F6
:10B940001A641A6E22F400121A661B6E002301227A
:10B950006360227083F3118810BD00BFEC1A0020D1
:10B9600000E100E000380240F8B50446302686F3D6
:10B970001188002585604900032020702184606BB8
:10B9800085F31188216BA76A09680F60CA604B6054
:10B99000E36A626A1B681A60069ADA60079A5A605C
:10B9A0004FF0804241F28737516A86F311888369EC
:10B9B0009B0702D403689B052AD5536A5B1ABB42D6
:10B9C00023D9236B1A68116821F01F0111601168D7
:10B9D000CF07FCD4597A5A683D238B401360E36A41
:10B9E0001A68116821F01F0111601168CE07FCD49C
:10B9F000597A5A683D238B4013604FF0FF3005237E
:10BA00002370002383F31188F8BD85F31188CCE7F8
:10BA10004368089943F400734360036843F48073F8
:10BA2000036004F11C00FFF715F900B3236B1A68DB
:10BA3000116821F01F0111601168CD07FCD4597AFB
:10BA40005A683D238B401360E36A1A68116821F03D
:10BA50001F0111601168C907FCD4597A5A683D2347
:10BA60008B401360421C0CBF05230223C8E702234E
:10BA7000C6E7F8B50446302686F31188002549004C
:10BA8000856041F00101042020702184606B85F302
:10BA90001188E16A676A09680F60CA604FF08042E6
:10BAA0004B60516A41F2873786F3118883699B079F
:10BAB00002D403689B051CD5536A5B1ABB4215D997
:10BAC000E36A1A68116821F01F0111601168C80744
:10BAD000FCD4597A5A683D238B4013604FF0FF30F5
:10BAE00005232370002383F31188F8BD85F31188A3
:10BAF000DAE74368069943F400734360036843F44C
:10BB0000A063036004F11C00FFF7A4F890B1E36A9E
:10BB10001A68116821F01F0111601168C907FCD46F
:10BB2000597A5A683D238B401360421C0CBF052391
:10BB30000223D6E70223D4E7F0B400EB810447895F
:10BB4000E4680125A4698D403D43458123600023BD
:10BB5000A2606360E360F0BCFDF756BC38B590F8B6
:10BB600034300446002B42D0063BDAB20F2A38D8D4
:10BB70000F2B36D8DFE803F03B3535082636353550
:10BB80003535353535353B3B90F84A3090F84B200C
:10BB9000C56B43EA02239D4214D2C3681B8AB5FBDE
:10BBA000F3F203FB12556DB9302383F311882B4652
:10BBB0002A462946FDF7ABFC85F311880A2384F851
:10BBC00034300EE0142384F83430302383F31188AA
:10BBD00000231A4619462046FFF7AEFF002383F3E1
:10BBE000118838BD036C03B198470023E7E7636D04
:10BBF000D3F8002942F40012C3F80029D3F8002B2F
:10BC000042F40012C3F8002B63681B6813B10621CD
:10BC1000204698470623D2E74FF080422DE9F843AB
:10BC20001369D1680B40D9B2C9439B07116141D553
:10BC3000302383F311882A4E06F110074FF0804914
:10BC40003569D9F82400F469A968DFF89880031BE6
:10BC50008B423BD32B686A680C44F46113605A60D2
:10BC600000232B603269424508BFC9F80C3083F3CA
:10BC70001188EB68296928469847302383F3118897
:10BC80006A69002ADCD04FF080433069596A0B1B87
:10BC90009A4237BFF26A121942F00202F2622CBFD6
:10BCA000521A0022404509D1284604F0A3F8002387
:10BCB00083F31188BDE8F843FEF7C0B89B1838BF7E
:10BCC0001A4629463846FEF73BFFB7E74545EED012
:10BCD0000C44211AF061A960FEF748FFE7E700BFB6
:10BCE000680F0020780F002008B5074B074A196835
:10BCF00001F03D01996053680BB190689847BDE829
:10BD00000840FEF79BB800BF00600240DC11002035
:10BD100008B5084B1968890901F03D018A019A604C
:10BD2000054AD3680BB110699847BDE80840FEF793
:10BD300085B800BF00600240DC11002008B5084B48
:10BD40001968090C01F03D010A049A60054A53691B
:10BD50000BB190699847BDE80840FEF76FB800BF87
:10BD600000600240DC11002008B5084B1968890DFD
:10BD700001F03D018A059A60054AD3690BB1106A4A
:10BD80009847BDE80840FEF759B800BF0060024080
:10BD9000DC11002008B5074B074A596801F03D0146
:10BDA000D960536A0BB1906A9847BDE80840FEF726
:10BDB00045B800BF00600240DC11002008B5084B08
:10BDC0005968890901F03D018A01DA60054AD36AA0
:10BDD0000BB1106B9847BDE80840FEF72FB800BFC5
:10BDE00000600240DC11002008B5084B5968090CBE
:10BDF00001F03D010A04DA60054A536B0BB1906B08
:10BE00009847BDE80840FEF719B800BF006002403F
:10BE1000DC11002008B5084B5968890D01F03D017F
:10BE20008A05DA60054AD36B0BB1106C9847BDE800
:10BE30000840FEF703B800BF00600240DC1100209C
:10BE400008B5074B074A196801F03D019960536C2A
:10BE50000BB1906C9847BDE80840FDF7EFBF00BFFD
:10BE600000640240DC11002008B5084B19688909FC
:10BE700001F03D018A019A60054AD36C0BB1106D47
:10BE80009847BDE80840FDF7D9BF00BF00640240F5
:10BE9000DC11002008B5084B1968090C01F03D01C0
:10BEA0000A049A60054A536D0BB1906D9847BDE83E
:10BEB0000840FDF7C3BF00BF00640240DC11002052
:10BEC00008B5084B1968890D01F03D018A059A6093
:10BED000054AD36D0BB1106E9847BDE80840FDF7D9
:10BEE000ADBF00BF00640240DC11002008B5074B65
:10BEF000074A596801F03D01D960536E0BB1906E4D
:10BF00009847BDE80840FDF799BF00BF00640240B4
:10BF1000DC11002008B5084B5968890901F03D0182
:10BF20008A01DA60054AD36E0BB1106F9847BDE8FD
:10BF30000840FDF783BF00BF00640240DC11002011
:10BF400008B5084B5968090C01F03D010A04DA6094
:10BF5000054A536F0BB1906F9847BDE80840FDF755
:10BF60006DBF00BF00640240DC11002008B5084B23
:10BF70005968890D01F03D018A05DA60054AD36FE1
:10BF800013B1D2F880009847BDE80840FDF756BFCE
:10BF900000640240DC1100202DE9F74FC2F3C31307
:10BFA00002F0030AC2F38009C2F3C108C2F3411EC2
:10BFB0000193574600224FF00F0BCB0737D5019C5A
:10BFC00002F007039B0004FA03FC01254468954036
:10BFD00024EA050444EA0904446085680324560001
:10BFE00004FA06F625EA060545EA08058560C568EF
:10BFF00025EA060545EA0E050BFA03F3BAF1020F2E
:10C000006FEA0604C5606FEA03031BD1072A95BFD8
:10C01000056A456A2B402B4095BF43EA0C0343EA6F
:10C020000C030362436203681C403C4304604908FC
:10C030001AD04FEA49094FEA88084FEA8E0EBF002E
:10C040000132BAE705682C403C43072A046095BFDB
:10C05000046A446A2340234095BF43EA0C0343EA41
:10C060000C0303624362E2E703B0BDE8F08F000017
:10C0700038B5224B1B7813F0010309D1204A194629
:10C0800001332A2B51701170917002F10302F7D124
:10C090001C4C23783BB91C4801224FF40071FFF778
:10C0A0007BFF01232370302383F31188144C002578
:10C0B0002078FCF73FFF6078FCF73CFF0135A07863
:10C0C000FCF738FF2A2D04F10304F1D1DFED0F7ADC
:10C0D000002300BF00BF00BF00BF00BF00BF01338F
:10C0E00007EE103AB8EEC77AB4EEE77AF1EE10FA3E
:10C0F000EFD4002383F3118838BD00BFD818002087
:10C1000079140020E0180020000002400000C44420
:10C110002DE9F84FDFF8F49099F800409246E207D5
:10C1200080460F469B466AD504F0FE04022C4ED191
:10C13000344B13F80A5000295ED000EB4002FF2375
:10C140005200B2FBF3F26FF05403534314FB00347C
:10C1500004EB4404E4B211FB04F3C4F1FF044C43C8
:10C160001B122412C1F1FF06C3F1FF03C4F1FF0447
:10C170006E436B436C43C6F30726C3F30723C4F334
:10C180000724062A36D8DFE802F01004070C313500
:10C1900010002C461D4608E023462C4635461E4618
:10C1A00003E02A461C46354616462946254699F898
:10C1B0000030DB070BD5144B002201322A2A5970BC
:10C1C0001D709E7003F10303F7D1FFF751FF89F84B
:10C1D000018089F8027089F803A0BBF1000F0ED02E
:10C1E000D9E90001BDE8F84FFFF7EAB82346344625
:10C1F0002E46CFE73446D2E72E462946D7E7BDE89C
:10C20000F88F00BF6508010879140020D8180020B5
:10C2100010B50B4C2378DA0710D5012262F34703DF
:10C22000237019B1D4E90001FFF7CAF8E278A178C8
:10C2300060780023BDE81040FFF76ABF10BD00BF63
:10C24000D81800202DE9F04F037989B00646002B5D
:10C2500001F02F810121FDF73DFA73790446C3B146
:10C26000864B1B88ABB1984213D085491C22DBB2A8
:10C270005343C818CC52427942F004024271FEF78F
:10C2800089F9804B0022012130461A70FDF722FA0D
:10C2900004467379002B00F09980A4F5EE439BB21D
:10C2A0007F2B00F2AE80E4B20F2C00F2D28041F678
:10C2B000FF70FDF71BFB002840F0CB8040F2556873
:10C2C0003CBB07944046FDF711FB08F101078DF8D0
:10C2D0001C008DF81D40002800F0BB80012814D1FF
:10C2E0003846FDF703FB08F102058DF81D00002814
:10C2F00000F0AF80431E022B1DD82846FDF7F6FA4A
:10C3000008F103078DF81E0088B107A804F07AF839
:10C310000DE0B8F5005F00F09C804046FDF7E6FABE
:10C3200008B9013CE4B208F10108C9E74F46B84634
:10C33000C8E72F46FBE7431F022B2CD82846FDF702
:10C34000D5FA08F103098DF81E000028EED0484602
:10C35000FDF7CCFA08F104078DF81F000028E6D09D
:10C36000BDF81E00ADF8180080B2B0F57F4F9DF803
:10C370001D3084BF000280B2062B06D0072B07D0E9
:10C38000052BD4D101F09AFDD1E701F051FDCEE7A4
:10C3900001F072FDCBE70428CBD12846FDF7A6FAC1
:10C3A000054608F1030008F10407FDF79FFA002D88
:10C3B0004FD000284DD0431EC3EB0323013D1D4445
:10C3C000013DB4D36420FEF715FEF9E7A4F5AE40B5
:10C3D00085B2FF2D15D82C4FE8B23946FDF7B0FFD6
:10C3E00078B927481C2303FB05039B78012B1FD139
:10C3F0003B8833B17B8823B1BB88FA8813439BB257
:10C40000DBB17779214B002F46D047F65E4294424C
:10C410001DD047F65F42944205D047F65D429442F4
:10C420003AD11A789AB10020187003F02FFE10E06C
:10C43000022BE6D1BB88002BE3D01C2303FB0500B5
:10C4400043796FF300034371FEF7A4F8D9E70122A3
:10C450001A700F4B1B78590701F02B807379002B52
:10C4600001F027800B4B5B785A0741F122800220B4
:10C4700009B0BDE8F04FFCF7F7B900BF320F00205C
:10C4800030190020DE1A0020521A0020480D00202A
:10C49000301500203E1400201B78002B00F0CF86C2
:10C4A000A44BA54D1978A54BDFF8B8A21B7819430A
:10C4B000A34BA4F1E0081B781FFA88F81943B8F1E0
:10C4C000070F49B235D804F00702012393405BB24D
:10C4D00067B319435FFA81FB3088FDF745FE0123FE
:10C4E00083400593DAF800300393964A2B8804932F
:10C4F0000023D8B252F82050002D00F0ED86BBF199
:10C50000000F01D1A87878B9E878059908420BD0D6
:10C51000287A10F0070F08BF0720B8F1070F19D8C5
:10C52000AFB1C0F34000C8B90133E2E721EA03012B
:10C53000D0E75FFA81FB002F00F0C6862C80FDF764
:10C5400011FF814B1860814B00221A80C4E7C0F3B1
:10C550008000E8E7002FE7D0C007E5D5B5F80090E8
:10C560004C4501D1002FDFD003998D42DCD06869A2
:10C5700010B100780028D7D0594628460293FCF71E
:10C58000B1FD029B6F4A0028CED04C450CBF394606
:10C5900000210291B9F1000F03D011B90499894526
:10C5A000C2D1002003F072FD694BCAF8005001228D
:10C5B0001A70684B6A791A70029B4BB9B9F1000F77
:10C5C00006D02B882878043BA02B2FD8FDF7F4FD4C
:10C5D000B5F80690A9F58073B3F5F85F3CBF29F470
:10C5E000F8501FFA80F909F1FF37BFB247F63E63F2
:10C5F0009F42EB688CBF002701271BB129690120EE
:10C60000984707407FB1E888A0F58073B3F5F85FDD
:10C610000FD2FCF741F8504BB8F1070F18700AD849
:10C620004846FEF747F9FDF7E7FE0DE0FEF7C4F8D0
:10C63000CEE70020EFE7A9F10400A0285FFA89F512
:10C6400009D82846FCF7D8F8029B002B00F0F785A4
:10C65000FDF7D2FEFDE6FDF7CFFE4FF47A70FEF750
:10C66000C9FC2846FEF728F8EEE70388A34240F00D
:10C67000E185002F40F0DF85354B1F70002003F06F
:10C6800005FD00F0DCBD6A69A9692846FCF748FD94
:10C690006B799A0740F12F862846FDF769FF2F4BEB
:10C6A0001A88A24208BF1F8000F025BE9AF8002019
:10C6B000C2F3000181F0010161F300028AF8002059
:10C6C000FDF734FF00F044BE9AF800206FF300023B
:10C6D000F4E7E12C27D19AF8001062F304118AF8EC
:10C6E00000109AF80020D2070DD5272C727952D865
:10C6F0001D2C00F28780211F89B2192958D912B147
:10C70000174B00221A80A4F5F843183B7079062BCA
:10C7100000F22886DFE813F0F000F700E000E900FF
:10C72000FE0005010C01E52C1ED19AF8001062F301
:10C730004511D4E73515002042140020341500209F
:10C74000CC1800203815002044140020D0110020FF
:10C75000300F00202C190020DF1A0020320F00209B
:10C76000340F00202C0F0020A4F5005292B2B2F535
:10C77000405FB6D29AF80030590740F1F38599F836
:10C780001D2012F0020240F0ED852946104603F00C
:10C79000AFFE00F0E7BD382C08D82C2C01D82B2C8C
:10C7A000ADD199F81B1011F0040F05E0642CF7E7E8
:10C7B00099F81B1011F0100FA1D1002A00F087800A
:10C7C000DFF80083BC4B98F800101A78BB4F0A437F
:10C7D00012F0FD0F1BD099F81B10002211F002017E
:10C7E0003A8014D12046FDF795FD204603F0F2FA79
:10C7F000B14B187800F0FD00FDF722FF0220FCF796
:10C8000033F826E699F81B1011F0080FD4E7AC4B6B
:10C81000DFF8B4B20A2231461846FBF71FFE0022A9
:10C82000427142803888844235D199F81B209306A2
:10C8300031D59AF80010890701D552062BD5BBF8DF
:10C84000009003F073FCA5EB09091FFA89F98145F3
:10C8500021D298F80020930708D59AF800200220EA
:10C8600042F010028AF80020FDF7DCFC98F8002066
:10C87000950608D59AF80020202042F020028AF878
:10C880000020FDF7CFFC9AF800103888C1F3400172
:10C8900003F0A0FADDE5884B98F80080187840EAAC
:10C8A000080800F0FD00FDF7CBFEC8F340089AF839
:10C8B00000203C804FEA480848F0040822F00602B5
:10C8C00048EA0208ABF800508AF8008096E729464B
:10C8D000204603F00DFEBCE526230093E1231A4613
:10C8E00047F61A4103F036FCB3E527230093E5230E
:10C8F0001A4647F61B41F5E726230093E022E12381
:10C9000047F61841EEE727230093E422E52347F694
:10C910001941E7E726230093E222E12347F61C4171
:10C92000E0E727230093E622E52347F61D41D9E7F8
:10C9300028230093E522012347F61E41D2E72378FE
:10C9400043F00103237021880420FEF71EFCFDF74D
:10C9500083FF7EE5637843F008036370F3E7237891
:10C9600043F00203EEE7237843F00403EAE7237879
:10C9700043F00803E6E7637843F00103EDE76378EB
:10C9800043F00203E9E7237843F01003DAE7237862
:10C9900043F02003D6E7237843F04003D2E7FDF7C6
:10C9A0005BFF237843F08003CCE7237823F00C036C
:10C9B00043F00C03C6E7637823F0030343F003035B
:10C9C000CBE723786FF30003BCE763786FF3C3030F
:10C9D000C3E723786FF34103B4E723786FF382034F
:10C9E000B0E723786FF3C303ACE763786FF300031A
:10C9F000B3E763786FF34103AFE723786FF3041372
:10CA0000A0E723786FF345139CE723786FF3861331
:10CA100098E7FDF721FF23786FF3C71392E7237898
:10CA200023F00C038EE7637823F0030395E7237864
:10CA3000C3F3800282F00102D2B262F3820362F396
:10CA4000C3037FE76378DA4302F0010262F3000375
:10CA500062F3410381E72378C3F3801282F001027D
:10CA600062F386136EE7FDF7F7FE2378C3F3C01277
:10CA700082F0010262F3C71364E701210E20FEF782
:10CA80000FFB60E70021F9E72378C3F3001282F07F
:10CA9000010262F3041355E72378C3F3000282F026
:10CAA000010262F300034DE76378C3F3C00282F032
:10CAB000010262F3C30350E735150020340F002054
:10CAC000360F0020CC180020600F002047F61643D8
:10CAD0009C4240F0A384924B99F81A101A78CC0724
:10CAE00002F0AA0303D512F0440F18BF00238D07EC
:10CAF00003D512F0110F18BF00234C0703D512F015
:10CB0000880F18BF00230D0703D512F0220F18BF9E
:10CB10000023844A4FB1002B15BF01230023352089
:10CB200029201370FBF768FE92E51378002B14BFE1
:10CB300035202920FDF740FB8AE57B4B1878C40798
:10CB400009D56FF300001870D3E90001FEF738FC37
:10CB5000FFF78EFA7DE440F0010001211870C84013
:10CB6000FFF756FB75E4714A7149FCF7DFF970E491
:10CB70006F4A6E49F9E76F4A6F49F6E76E4A6D49A9
:10CB8000F3E76E4A6E49F0E76D4A6C49EDE76D4A8E
:10CB90006D49EAE76C4A6B49E7E76C4A6C49E4E7A0
:10CBA0006B4A6A49E1E701210846D9E747F677432E
:10CBB0009C424DD047F678439C4253D030890028A0
:10CBC00000F09080FBF768FF624B96F806801F78B4
:10CBD000757917F0070704464FEA181824D02F4636
:10CBE00015B3C4F3072303F0F002402A0DD004F17B
:10CBF0002002D2B2072A40F28F80B8F1000F04D190
:10CC000003F0E003202B00F08980534B5F7817F08E
:10CC1000040709D00220FBF727FE4E4B1B7813F0C8
:10CC2000070F0CBF01270027C4F3033302930B2B1C
:10CC300000F2B880DFE813F096009600FE00FE00D8
:10CC4000C001D801B600B600E20144025402540209
:10CC50000120FBF79FFD032202210120FBF7A6FD27
:10CC6000FFF7F7BB0220F4E747F65A439C4237D060
:10CC700015D847F601439C422BD047F603439C420C
:10CC800020D0B4F5F84F99D1FDF7E6FD46F2A81093
:10CC9000FEF7B0F9314B324A1A60FCF785FA47F6D5
:10CCA0005B439C420BD047F65C439C4286D12A4BA7
:10CCB0005878C0F3800080F0010000F00100FEF71A
:10CCC00075FA7BE7FEF7B0FB4FF6FF710020FEF729
:10CCD0005CFAFDF7C1FD46F2A810FEF78BF9DCE720
:10CCE0000120ECE732887379ADF8182006987BB103
:10CCF000FDF7C6FA044601460698FDF70BFABDF8A3
:10CD00001830ADF81C3007992046FDF793FA59E723
:10CD1000FDF72AFA0446F2E7002785E7474683E74E
:10CD2000CC18002098120020D818002079E00008C4
:10CD300071E00008B1F2000899F20008E5F200087D
:10CD4000C9F200081DF3000801F30008F9B3000858
:10CD500011B40008301500203E140020FCFF002014
:10CD6000EFBEADDEC4F30723C4F3032B13F0F00FC3
:10CD700018BF4FEA0B1B5FFA84FA002D43D0BBF1BA
:10CD8000000F0CD00AF12002D2B2072A02D9BAF160
:10CD9000000F31D15846FDF73DFAFDF72DFB504607
:10CDA000FDF78AFC029B083B032B03D8FCF7BCF978
:10CDB000FBF7AAFC2046FBF7C1FC002840F01D82CF
:10CDC000B14B00221A6087B1B04B187810F0010304
:10CDD0000BD17371C008FBF7D3FC3046FFF732FA72
:10CDE000AA4B1878C008FBF7D5FC0021304609B0E3
:10CDF000BDE8F04FFCF76EBCA5490A784BEA020B80
:10CE000081F800B0C9E75046FDF7D6FCBBF1000F32
:10CE1000C8D00AF12002D2B2072A584602D9BAF184
:10CE2000000F02D1FDF7FEF901E0FBF739FDFDF738
:10CE3000E3FAB7E7C4F3072202F0F002C4F3032ACF
:10CE4000202A5FFA84FB18BF4FEA0A1ABBF1000FD1
:10CE50001CD0BBF1010F00F08680002D00F0918006
:10CE6000B8F1000F2ED071793088002203F0B2FAA9
:10CE700099F81D2012F0020140F0AB81B279D00781
:10CE800040F1A78161F30712B2711BE0814A527829
:10CE9000530713D44DB1BAF1000F04D05046FDF73B
:10CEA000B9F9FDF7A9FA00207AE72846FDF784FCD6
:10CEB000BAF1000F3FF476AF5046B3E78DB3B8F147
:10CEC000000F03D15046FDF70BFB6BE7B8F1010FE4
:10CED0000FD1714A92F800B03AEA0B033FF462AF07
:10CEE000FDF740FA6D496C4A08804AEA0B0313705B
:10CEF00058E799F81C20012A7FF654AF90457FF43B
:10CF000051AF5046FDF7ECFA5046FDF785FB6449FA
:10CF10000A783AEA02033FF445AF4AEA02030B708B
:10CF200040E7B8F1000F0ED15046FDF7EDFA50463C
:10CF3000FDF772FB5A490A781AEA020F3FF432AF42
:10CF400022EA0A03EBE799F81C20012A7FF62AAFB0
:10CF5000B8F1010F7FF426AF524A12781AEA020F95
:10CF60003FF420AFE0E799F822201DB190453FF64D
:10CF700019AFA7E79045BFF415AF5046FDF7C4FAC7
:10CF800010E7B8F1000FF8D0BBF1390F40F0328153
:10CF9000B9F82000002800F02681434940F2E73329
:10CFA000A0FB0101C0184FF47A724FF0000341F169
:10CFB0000001FBF7D1F817E114F4406FC4F38123AB
:10CFC00008D0012B7FF4EEAE65B1C4F30900FCF785
:10CFD000CFF8E7E625B1C4F30900FCF7ADF8E1E6C8
:10CFE0002846FAE72846F2E7E0B225B1FBF7BAFE99
:10CFF000FDF73CFBD6E6FBF713FFF9E714F4407F9F
:10D0000023D1002D7FF4CEAEC4F342129200D2B2EF
:10D0100004F00F039340D8B214F010031FBF0F2386
:10D0200003FA02F2D243D3B22049C4F38122022A86
:10D0300040D0032A42D0012A0DBF0A780343087862
:10D04000024314BF0340134369E7C4F30122C5B18F
:10D0500012F0010F3FF4A6AEC4F342129200D2B216
:10D0600004F00F039340D8B214F010031FBF0F2336
:10D0700003FA02F2D243D3B2C4F381220C49022A4A
:10D08000D6E712F0020FE5E7D01800203015002097
:10D09000DE1A00203E140020351500203615002031
:10D0A00034150020CC180020A0860100C5110020F6
:10D0B0007814002003430878434030E703432EE709
:10D0C000E1B2C4F3032B25B15846FBF759FB0846E0
:10D0D000F9E60846FDF718FA5846FBF75BFB61E6F0
:10D0E0005FFA84FBABF1F003042B6ED8DFE803F0AA
:10D0F0000329151C250099F8223055B19845BFF435
:10D1000051AE664AC4F3042101238B4011784B4091
:10D11000EDE698453FF646AEF3E7C4F30420002D54
:10D12000DBD1FBF72DFB3DE65C4A25B1C4F30421BE
:10D1300001238B40DBE6157034E6594B5B785A07C8
:10D1400004D4C4F30420002DC7D0EAE799F81C30BA
:10D15000012B2DD9DDB1534A127802F00702042ABF
:10D160004FF0000706D14F4B1F704F4B1F80C4F389
:10D170000420B2E79845BFF415AEC4F30420039031
:10D180000321FBF7FDFA0398FDF72CFA0AE6984510
:10D190000AD3444B1D70444B0421C4F304201D806A
:10D1A000FDF720FA2F46FDE50120FBF75DFBF9E7CF
:10D1B000002DE2D10120FBF757FBB8F1010F7FF6FC
:10D1C000F1AD0220FBF750FBECE53DB1B8F1000FEB
:10D1D00001D05846E4E5C4F30420A2E7B8F1000FFB
:10D1E0007FF4D2AEC3E70120FDF704FF5846FDF7F8
:10D1F000E3FAD7E5B9F81E00CCE625B1B8F1000F87
:10D200007FF4DEADDFE5B8F1000F7FF4D9AD7179C1
:10D210003088424603F0DEF899F81D301B077FF591
:10D22000CFAD224B1B68022B7FF4CAADE0B2FDF7F5
:10D23000EDFEC5E51FB1037A99067FF51FAAA4F597
:10D24000AE43FF2B57D81A4B7779E5B21C2202FB6D
:10D2500005356B7967F300036B71002F3FF413AA58
:10D26000FDF780F8134B144A1880AB781278A9693F
:10D270000133AB70114B1B781343EB70104BAA6852
:10D280001B782B712846FBF74BFF6B7913F0020FCD
:10D290000C4B0CBF224600221A802CE07814002090
:10D2A0003E1400203015002032150020D018002038
:10D2B000301900206C140020CC180020DE1A002049
:10D2C00035150020320F00202B88A34204D17A4B61
:10D2D0002F801F60794B1F80DAF800000028AED045
:10D2E000B8F1070F3FF6C1A95946FBF7FBFE10B98D
:10D2F000012002F0CBFEDFF8D89199F81B30DB0754
:10D300007FF501AAFDF72EF87279DFF8C8A185B282
:10D31000002A3FF4DEA99AF80020570704D500221E
:10D320002946104603F0E4F847F6144294423FF4CD
:10D33000CBA947F6154294423FF4B8A947F61342E9
:10D34000944205D19AF8002042F001028AF80020A8
:10D35000A4F5005292B2B2F5405FBFF4C2A9584B97
:10D3600000221A807779002F60D0564B0020A4F558
:10D37000E0451870ABB2222B3FF6A8AB0420FCF7B7
:10D3800016FB514C013D2080212D3FF6D8AA01A368
:10D3900053F825F0C3C9000899CA0008D3C900088A
:10D3A0005FC9000867C90008DBC900086FC9000829
:10D3B000E3C90008FBC9000887C9000889CA00083A
:10D3C0008FC9000803CA000897C900080BCA0008E3
:10D3D00057CA00089FC9000813CA000867CA000896
:10D3E000ABC900081FCA00082FCA000877C9000887
:10D3F000EBC900087FC90008F3C90008B7C90008D5
:10D4000027CA000845CA00087BCA000885CA000868
:10D4100055C90008CBC90008A9CA000847F67743D8
:10D420009C423FD10120FBF7ABF914E447F61643C9
:10D430009C423FF450AB254B1878A4F5F043203BB9
:10D4400000F02200142B3FF6B1AB01A252F823F0FA
:10D450003BCB000867CB000871CB000877CB0008F6
:10D460007DCB000883CB000889CB00088FCB000858
:10D4700095CB00089BCB0008A1CB0008A7CB0008E8
:10D4800053C4000853C4000853C4000853C4000820
:10D4900053C4000853C4000853C4000853C4000810
:10D4A00053C4000847F678439C427FF4DDAB02206A
:10D4B000B9E709B0BDE8F08F44140020D011002076
:10D4C000340F0020E11800203E140020CC1800206A
:10D4D000680D0020000C00202DE9F843204DAB79A9
:10D4E00013F0F00F0BD16B794BB11E4BDFF8789036
:10D4F0001C78DFF8788099F80030A34201D1BDE8AC
:10D50000F88304EB840308EB4302127922B338F862
:10D5100013202B889A421FD10A2606FB04867179B4
:10D52000D1B96B8877882846FF1AFCF7D3F802F048
:10D53000FDFDBFB287420FD2AB790948012262F3E9
:10D540000713AB71B37962F30713B371FEF77AFE79
:10D55000BDE8F843FBF740B9013404F00704CAE71B
:10D56000481A0020DD1A0020DC1A00208C1A002046
:10D570002DE9F04FAB4C89B005460146062203A8C1
:10D58000FAF76CFF23796F7995F804B0FBB9BBF11A
:10D59000000F01D1012612E0AFB12846FCF7A8FE2A
:10D5A000064680B10A2229462046FAF757FF23791A
:10D5B000012B02D12088FCF789FEFFF78DFF304652
:10D5C00009B0BDE8F08F2846FEF73CFEE2E70021F7
:10D5D000204695F8009095F801A0B5F80280FCF778
:10D5E00079F86679002E00F0C4806388A8EB030305
:10D5F0009BB2002120460193FCF76CF802F096FDE7
:10D60000019B834280F09980BBF1000FC2D0A379C7
:10D6100021882A8813F0F00F57D1914211D1218926
:10D620002A8991420DD1002F40F0F180012262F34E
:10D6300007132046A371FEF705FEA379AB71002600
:10D64000BDE7002F40F0E3803A465146484602F0DD
:10D650009BFE044660B1744B5B7FD907EFD57148E0
:10D66000FEF7F0FD0A2200216E48FAF791FFE6E787
:10D670000398FCF72BFEC0F30332032AC3B20AD887
:10D68000012A12D910F4706F14D0AA7912F0F00F99
:10D6900010D1264693E7063202F00F02012A0ED976
:10D6A0002846FEF7CFFD3446F3E710F4706F01D043
:10D6B000002BEED02033DBB2072BEAD9F0E7EF2BBB
:10D6C000E7D90F33DBB2022BF7E791420ED1218964
:10D6D0002A8991420AD14FB92846AB71FEF7B2FDB3
:10D6E0000A2229462046FAF7B9FE68E72846FCF7E1
:10D6F000FFFD00283FF467AF002F3FF464AFA3792C
:10D700001F2B12D92288ADF8142022798DF8182009
:10D710008DF81A3000222389ADF8168005A88DF8FF
:10D720001920ADF81C30FEF78DFD0A2229463D4830
:10D73000FAF794FEFFF7D0FE2CE7A37913F0F00F71
:10D740008DD0BBF1000F3FF425AF21882A8891428C
:10D75000CCD121892A899142C8D1002FC6D1AB7181
:10D760002846FEF76FFD0A2239462046FAF710FFD9
:10D7700025E731462046B4F80290FBF7ABFF02F0F4
:10D78000D5FCA8EB09091FFA89F981453CD2BBF108
:10D79000000F3FF4FFAE3E46002F3FF414AF228847
:10D7A0002B889A4223D122892B899A421FD16388E0
:10D7B000A8EB03081FFA88F8B8F1C70F13D8A379AC
:10D7C000DA0710D413F0F0030DD0A279AA71F02B70
:10D7D00006D0D3B2C3F30312013262F30713AB7165
:10D7E0002846FEF72FFD0F480A2229467BE72846E8
:10D7F000FCF77EFD002898D1A379284643F0010369
:10D80000A371FEF71FFDDAE60A223146ADE7A379E0
:10D8100043F00103A371044B5B7F9B073FF50FAF00
:10D820001DE700BF481A0020680D0020F0B589B040
:10D8300001AC84E807002046FFF79AFE1E4F1F4EFA
:10D84000054638B994E8070005AB03C31A809DF874
:10D85000083033B91A4C30783B7883421DD109B077
:10D86000F0BD3B7832785C1C04F0070494420AD087
:10D8700013480A2205A902FB0300FAF7EFFD3C70EA
:10D88000FAF7AAFFE6E7FCF7E7FF0A2229460D4868
:10D890003D703570FAF77CFEDCE700EB800004EBAE
:10D8A0004000FFF765FE0028D9D03378013303F03C
:10D8B00007033370CFE700BFDC1A0020DD1A002019
:10D8C0008C1A0020481A00202DE9F843DFF88080E8
:10D8D00098F8003063B11C4F1C4D3C78DFF8749011
:10D8E00098F80030A34205D8002388F800303B7038
:10D8F000BDE8F883C4EBC40105EB4103661C1A794B
