:020000040800F2
:10000000000400201D8100081F8100081F810008D6
:100010001F8100081F8100081F8100081F81000840
:100020001F8100081F8100081F810008B5CD00084E
:100030001F8100081F8100081F8100081F81000820
:100040001F8100081F8100081F8100081F81000810
:100050001F8100081F8100081F8100081F81000800
:100060001F8100081F8100081F81000851D300086C
:1000700079D30008A5D30008D1D30008FDD3000828
:1000800025D4000851D400081F8100081F810008F2
:100090001F8100081F8100081F8100081F810008C0
:1000A0001F8100081F8100081F8100081F810008B0
:1000B00081D200081F8100081F8100085DFE000832
:1000C00071FF00081F8100081F8100081F810008C0
:1000D0001F8100081F8100081F8100081F81000880
:1000E0001F8100081F8100081F8100081F81000870
:1000F0001F8100081F8100081F8100087DD40008AF
:100100001F8100081F8100081F8100081F8100084F
:100110001F8100081F8100081F8100081F8100083F
:10012000A9D40008D1D40008FDD4000829D50008BE
:1001300055D500081F8100081F8100081F81000895
:100140001F8100081F8100081F8100084D18010849
:100150007DD50008A9D50008D5D500081F81000865
:100160001F8100081F8100081F8100081F810008EF
:100170001F8100081F8100081F8100081F810008DF
:100180001F8100081F8100081F8100081F810008CF
:100190001F8100081F8100081F8100081F810008BF
:1001A0001F8100081F8100081F8100081F810008AF
:1001B0001F8100081F8100081F8100081F8100089F
:1001C0001F8100081F8100081F8100081F8100088F
:1001D0001F8100081F8100081F8100081F8100087F
:1080000072B6374880F30888364880F309883648C6
:108010003649086040F20000CCF200004EF63471A0
:10802000CEF200010860BFF34F8FBFF36F8F40F2B5
:108030000000C0F2F0004EF68851CEF20001086058
:10804000BFF34F8FBFF36F8F4FF00000E1EE100AC8
:108050004EF63C71CEF200010860062080F31488D1
:10806000BFF36F8F03F009FC04F02CF84FF055308C
:108070001F491B4A91423CBF41F8040BFAE71D49D6
:10808000184A91423CBF41F8040BFAE71A491B4ACF
:108090001B4B9A423EBF51F8040B42F8040BF8E721
:1080A00000201849184A91423CBF41F8040BFAE7F6
:1080B00004F0E2F804F0DEF8144C154DAC4203DA9B
:1080C00054F8041B8847F9E707F0EAFF114C124DFA
:1080D000AC4203DA54F8041B8847F9E704F0CBB844
:1080E00000040020000C00200000000808ED00E063
:1080F0000000002000040020043B0108000C0020C8
:10810000E00D0020E00D0020301C00200080000861
:1081100000800008008000080080000870E700F080
:1081200000F8FEE72DE9F04F2DED108AC1F80CD0D4
:10813000C3689D46BDEC108ABDE8F08F002383F331
:1081400011882846A047002004F054FBFEE704F005
:1081500033FB00DFFEE7000053B94AB9002908BF2E
:1081600000281CBF4FF0FF314FF0FF3000F074B912
:10817000ADF1080C6DE904CE00F006F8DDF804E07E
:10818000DDE9022304B070472DE9F047089D04465D
:108190008E46002B4DD18A42944669D9B2FA82F2BA
:1081A00052B101FA02F3C2F1200120FA01F10CFAF6
:1081B00002FC41EA030E94404FEA1C48210CBEFB2E
:1081C000F8F61FFA8CF708FB16E341EA034306FBB7
:1081D00007F199420AD91CEB030306F1FF3080F046
:1081E0001F81994240F21C81023E63445B1AA4B293
:1081F000B3FBF8F008FB103344EA034400FB07F735
:10820000A7420AD91CEB040400F1FF3380F00A8175
:10821000A74240F207816444023840EA0640E41B6A
:1082200000261DB1D4400023C5E900433146BDE816
:10823000F0878B4209D9002D00F0EF800026C5E9B8
:10824000000130463146BDE8F087B3FA83F6002ED0
:108250004AD18B4202D3824200F2F980841A61EB48
:10826000030301209E46002DE0D0C5E9004EDDE766
:1082700002B9FFDEB2FA82F2002A40F09280A1EB4E
:108280000C014FEA1C471FFA8CFE0126200CB1FBA3
:10829000F7F307FB131140EA01410EFB03F088429C
:1082A00008D91CEB010103F1FF3802D2884200F229
:1082B000CB804346091AA4B2B1FBF7F007FB1011BB
:1082C00044EA01440EFB00FEA64508D91CEB040459
:1082D00000F1FF3102D2A64500F2BB800846A4EBB4
:1082E0000E0440EA03409CE7C6F12007B34022FA9F
:1082F00007FC4CEA030C20FA07F401FA06F31C43CE
:10830000F9404FEA1C4900FA06F3B1FBF9F8200CDA
:108310001FFA8CFE09FB181140EA014108FB0EF020
:10832000884202FA06F20BD91CEB010108F1FF3A70
:1083300080F08880884240F28580A8F1020861447C
:10834000091AA4B2B1FBF9F009FB101144EA01418A
:1083500000FB0EFE8E4508D91CEB010100F1FF3435
:108360006CD28E456AD90238614440EA0840A0FBCD
:108370000294A1EB0E01A142C846A64656D353D0A3
:108380005DB1B3EB080261EB0E0101FA07F722FAC7
:1083900006F3F1401F43C5E9007100263146BDE8F0
:1083A000F087C2F12003D8400CFA02FC21FA03F353
:1083B000914001434FEA1C471FFA8CFEB3FBF7F0D4
:1083C00007FB10360B0C43EA064300FB0EF69E42F9
:1083D00004FA02F408D91CEB030300F1FF382FD292
:1083E0009E422DD9023863449B1B89B2B3FBF7F63A
:1083F00007FB163341EA034106FB0EF38B4208D913
:108400001CEB010106F1FF3816D28B4214D9023E53
:108410006144C91A46EA004638E72E46284605E771
:108420000646E3E61846F8E64B45A9D2B9EB020842
:1084300064EB0C0E0138A3E74646EAE7204694E7D2
:108440004046D1E7D0467BE7023B614432E7304605
:1084500009E76444023842E7704700BF844641EAB6
:10846000000313F003036DD1403A41D351F8043BAC
:1084700040F8043B51F8043B40F8043B51F8043BFE
:1084800040F8043B51F8043B40F8043B51F8043BEE
:1084900040F8043B51F8043B40F8043B51F8043BDE
:1084A00040F8043B51F8043B40F8043B51F8043BCE
:1084B00040F8043B51F8043B40F8043B51F8043BBE
:1084C00040F8043B51F8043B40F8043B51F8043BAE
:1084D00040F8043B51F8043B40F8043B51F8043B9E
:1084E00040F8043B51F8043B40F8043B403ABDD20D
:1084F000303211D351F8043B40F8043B51F8043BAF
:1085000040F8043B51F8043B40F8043B51F8043B6D
:1085100040F8043B103AEDD20C3205D351F8043B3D
:1085200040F8043B043AF9D2043208D0D2071CBF09
:1085300011F8013B00F8013B01D30B880380604632
:10854000704700BF082A13D38B078DD010F00303A8
:108550008AD0C3F10403D21ADB071CBF11F8013B18
:1085600000F8013B80D331F8023B20F8023B7BE767
:10857000043AD9D3013A11F8013B00F8013BF9D292
:108580000B7803704B7843708B788370604670472C
:1085900038B5124B1D68AA6B04461AB10023C2E914
:1085A000044338BD182000F0B9F80246A86378B13A
:1085B00001200021C2E90401094B0A480A499160DF
:1085C000C2E900030B2393810023C2E9044338BDB1
:1085D000064B0748422100F059F800BF000C00206C
:1085E00034126DE60E33CDABECDE0500343A0108F3
:1085F0004C3A01081C4B10B51C68A26B8AB1136978
:108600001A4954691A4803FB01F100FB0411A3FB4A
:108610000030013341EB0001C2E9043121F0004098
:1086200010BD182000F07AF80246A06388B1114C02
:10863000114B0E48114991609FED097BC2E900433F
:108640000B2393810E4B014682ED047BC2E904317A
:1086500010BD0C4B0C484E2100F018F8AFF3008011
:108660000100000000000000000C00202DF4515813
:108670002D7F954C0E33CDAB34126DE6ECDE05004C
:108680002E7F954C343A01084C3A010800B50B4C4A
:1086900025681446EE681A4685B003460D464CB16F
:1086A00007490095CDE901143046064900F022F84B
:1086B00000F068FD04490C46F3E700BF000C002001
:1086C000803A0108903A01088C3A010808B513462F
:1086D0000022FFF7DBFF00BF0CB400B583B004AB92
:1086E00053F8042B019300F029F903B05DF804EB73
:1086F00002B070470EB410B583B005AB064C53F80A
:10870000042B01930146206800F018F903B0BDE87E
:10871000104003B0704700BF000C0020024B014620
:10872000186800F06DB800BF000C0020024B014635
:10873000186800F003B800BF000C0020002958D0D2
:1087400030B551F8043C83B0002BA1F10404B8BF4C
:10875000E418019001F09AFA284A0198136833B19D
:10876000A3420DD9216804EB010C63452FD063604F
:10877000146003B0BDE8304001F08ABAA34210D8BB
:108780001A465B68002BF9D1116802EB010C6445B5
:1087900019D02FD36360546003B0BDE8304001F0BE
:1087A00077BA116802EB010CA44516D022D82168D3
:1087B00004EB010C6345EDD11D685B682944C4E9F5
:1087C00000135460D5E7236819441160D1E71D6890
:1087D0005B682944C4E90013CAE72468214454189B
:1087E000A3421160C5D1D3E900432144C2E900137B
:1087F000BFE770470C230360BBE700BFE00D00201C
:10880000F8B5CD1C25F0030508350C2D38BF0C2517
:10881000002D064623DBA94221D8254F01F036FA68
:108820003A6822B3144603E063682246FBB11C4653
:1088300023685B1BF8D40B2B15D8636894420CBFDC
:108840003B605360304601F023FA04F10B00231D16
:1088500020F00700C21A01D01B1AA350F8BD0C2348
:1088600033600020F8BD23601C442560EAE7796886
:10887000C9B12946304609F09FFA431C0CD0C41CEC
:1088800024F00304A04205D0211A304609F094FADE
:10889000013001D02560D5E70C233046336001F06C
:1088A000F7F90020F8BD304609F086FA7860E0E775
:1088B000E00D00209368013B002B936011DA10B4A7
:1088C0009469A34209DB0A2907D01368581C106079
:1088D000197008465DF8044B70475DF8044B00F0D2
:1088E0006BBB1368581C106019700846704700BFB6
:1088F0009BB1F8B5134406460F46541E5D1E01E0B9
:10890000AC4208D014F8011F3A463046FFF7D2FFB8
:10891000431CF5D1F8BD0020F8BD0020704700BF12
:10892000936810B5144613B95360184610BD00F093
:1089300041FE0023C4E9013310BD00BF2DE9F04F13
:1089400088469FB015461C46814618B18369002BA6
:1089500000F0A280924B984500F0A480914B98457E
:1089600000F0B180904B984508BFD9F80C80B8F85A
:108970000C30180740F19D80D8F81030002B00F023
:10898000988000230B932978884E059420238DF836
:10899000313030238DF832300127002974D02C4635
:1089A0000B4604E014F8013F002B00F08F80252BCC
:1089B000F8D1B4EB050B40F08C802378002B63D00A
:1089C00000234FF0FF32CDE90723069309938DF87A
:1089D0005B301C93013404E0069A07FA03F3134357
:1089E00006932546052214F8011B304601F030F8A5
:1089F000831B0028F0D1069BD90644BF20228DF8A6
:108A00005B2029781A0744BF2B228DF85B202A2986
:108A100070D1059A1168043200290592C0F29B803A
:108A20000991697801352E2976D0614C03222046C0
:108A300001F00EF838B1069B001B402404FA00F048
:108A400003430693013515F8011B5A488DF8301081
:108A5000062200F0FDFF002800F08380564B002B1B
:108A60006DD005AA0092554B424606A94846AFF381
:108A700000800390039B013306D00B9B039A297857
:108A800013440B9300298AD1B8F80C305B0617D435
:108A90000B981FB0BDE8F08F00F06CFD404B98457F
:108AA0007FF45CAFD9F80480B8F80C3018073FF5B4
:108AB00063AF4146484600F0E3FA00283FF461AF57
:108AC0004FF0FF30E5E7D9F8088050E7B4EB050B2D
:108AD000DAD0AA46C5F1010503E0934536D91AF864
:108AE000011F42464846FFF7E5FE013005EB0A024A
:108AF000F3D1C9E7A1F13002092A94D8099B15F8EE
:108B0000011F03EB830302EB4303A1F13002092AA7
:108B1000F5D92E29099388D169782A292BD1059B6B
:108B2000A9781A6807920433002A05F10200059318
:108B3000B8BF4FF0FF330546B8BF079375E7059BF5
:108B4000073323F007030833059396E70B9A23783E
:108B50005A440B9232E7494243F0020309910693CB
:108B60005FE705AA0092154B424606A9484600F069
:108B7000CBF803907EE7A1F130020023092A079386
:108B800005F101053FF651AF15F8011F03EB830313
:108B900002EB4303A1F13002092AF5D9079344E718
:108BA000A42B0108842B0108642B0108C03A01089A
:108BB000C83A0108CC3A010800000000F18800081A
:108BC00010B4054C8446134620685DF8044B0A46F1
:108BD0006146FFF7B3BE00BF000C00202DE9F84F3F
:108BE00092461F460A698B68DDF828909A42B8BF02
:108BF0001A46CAF8002091F843300C46064613B1D5
:108C00000132CAF80020226891065DD5DAF80030FA
:108C10000233CAF80030226812F0060F11461ED146
:108C2000E168CB1A002BD8BF114618DD04F1190BEF
:108C30004FF0000805E0E568DAF80030ED1A454528
:108C40000CDD01235A4639463046C847013008F149
:108C50000108F0D14FF0FF30BDE8F88F216894F89B
:108C60004330003B18BF01238A060AD5E1185A1C7D
:108C7000302081F84300224494F8451082F84310D4
:108C8000023304F1430239463046C8470130E1D08F
:108C9000236803F00603042B1DD0A36822699342C6
:108CA00025DD4FF000089B1A98441A34002501E096
:108CB00045451CDA0123224639463046C847013073
:108CC00005F10105F4D1C5E712F0060F12D0003B03
:108CD00018BF0123D5E7DAF80030E1682269C91A24
:108CE000A368934221EAE178DDDC0029DDDC002085
:108CF000BDE8F88FE168DAF80030CB1A002BD8BF56
:108D0000114693DCABE700BF2DE9F0470C4684B079
:108D10009046227E0C990746994604F14300002AAA
:108D200033D0A2F15803DDB2202D67D8202B65D8AF
:108D3000DFE813F0DE006400640064006400640097
:108D400064006400640064006400A3006E006400BA
:108D50006400640064006E006400640064006400E9
:108D600021007F00C00064006400AE0064007F004A
:108D700064006400E50023681A0640F104810B6872
:108D800062691D1D0D601B681A6000238246236105
:108D9000CDF80090434603AA21463846FFF71EFF50
:108DA000013020D02369524641463846C847013039
:108DB00019D02368E068039E9B0719D5831B002BFD
:108DC00016DD04F1190A002504E0E068039E831B08
:108DD000AB420DDD0123524641463846C8470130BB
:108DE00005F10105F1D14FF0FF3004B0BDE8F08787
:108DF000B042B8BF304604B0BDE8F087012384F824
:108E00004220236104F1420A002384F84330BFE783
:108E100023681A0602D45E0600F1C1800D682A6834
:108E200004350D601546002A6BDBDFF884C10A2685
:108E300010E023681D0640F19C800B681D1D0D602D
:108E40001D68DFF86CC16F2A0CBF08260A260023B4
:108E500084F843306268A260002A7FDB236823F035
:108E600004032360002D5BD1002A79D18246082EAD
:108E700065D0A0EB0A0020618AE70B680122186820
:108E800004330B6004F1420A84F842002261BBE71C
:108E90000B686268181D0860D3F800A000215046D6
:108EA00000F0D6FD002800F08180A0EB0A00606091
:108EB0002061A9E7236843F0200323607822DFF8CC
:108EC000F4C084F845200A68151D0D601D0643D4C2
:108ED000590641D51588DE0744BF43F020032360BF
:108EE000002D44D1236823F0200323601026AEE731
:108EF000582384F84530DFF8B8C02368E3E72368D7
:108F0000DCE76268A2602D21002AC5F1000584F823
:108F1000431002DB23F004032360DFF894C00A2629
:108F20008246B5FBF6F306FB13512A461CF80110E6
:108F30000AF8011DB2421D46F3D2082E99D12368CA
:108F4000D90796D5626823699A4292DC30230AF8E1
:108F5000013C0AF1FF3A8CE71568BCE7002DDFD130
:108F60009CF8003084F8423004F1420A7FE7102672
:108F70006DE713F0400F0B6803F104050D600CBFA3
:108F80001D681D885DE713F0400F0B68626903F1EF
:108F900004050D601B6814BF1A801A60F5E60A68A4
:108FA000B2F9005004320A602A463CE760687FE765
:108FB000D43A0108E83A0108F8B50D4614460646C9
:108FC00008B1836943B3254B9C422AD0244B9C4271
:108FD00029D0244B9C4208BFF468A389A269A260EF
:108FE0001A0722D5236903B322686169D31AEDB247
:108FF00099422F4629DD0133A1680139A160511C36
:109000002160157062699A4216D0A389DB0701D5E9
:109010000A2D11D03846F8BD00F0ACFA0F4B9C4237
:10902000D4D17468D9E7B468D7E72146304600F058
:1090300027F838B92369D7E72146304600F034F9DC
:109040000028E7D04FF0FF37E4E72146304600F034
:109050002BF90028F6D122680123CDE7A42B0108C3
:10906000842B0108642B010810B4044C03460A4603
:1090700020685DF8044B1946FFF79EBF000C0020E6
:109080003C4B70B51D6806460C460DB1AB69E3B1AB
:10909000394B9C421FD0394B9C424DD0384B9C429F
:1090A00008BFEC68B4F90C3018079AB219D52169D9
:1090B00011B312F001002FD00020A060606940427F
:1090C000A06100292ED0002070BD284600F052FA81
:1090D000294B9C42DFD16C68B4F90C3018079AB266
:1090E000E5D4D1063ED5520728D4216943F00803C0
:1090F000A3819AB20029DCD102F42070B0F5007F80
:10910000D7D02146304600F011FCB4F90C3021696B
:109110009AB212F00100CFD1950758BF6069A060E4
:109120000029D0D1120658BF0846CDD543F04003E0
:10913000A3814FF0FF3070BDAC68B3E7616B51B1F4
:1091400004F14402914204D03046FFF7F7FAB4F933
:109150000C300022626321690022C4E9001223F06E
:109160002403C3E7092243F0400332604FF0FF308D
:10917000A38170BD000C0020A42B0108842B0108E2
:10918000642B010808B5062000F040FE012008F01D
:109190003FFE00BF8B891A072DE9F0410C4680463F
:1091A0003FD44A68002A58DDE66A002E52D00022D9
:1091B000D8F80050C8F8002013F4805251D1012390
:1091C000216A4046B047431C5ED0A389E66A5F0728
:1091D00005D56368C01A636B0BB1236CC01A216A92
:1091E000024600234046B047411C3CD1D8F800302D
:1091F000002B38D01D2B01D0162B4DD12369002216
:10920000C4E90032616BC8F8005019B304F144039B
:10921000994202D04046FFF791FA00206063BDE812
:10922000F0810E69B6B10D680E609A070CBF4B69EC
:109230000023AD1B8B600BE02B463246216AA76AE8
:109240004046B847B0F1000CA5EB0C05664413DDB1
:10925000002DF1DC0020BDE8F0810A6C002AA3DCBF
:10926000F8E7606DB3E70023636023692360A38997
:10927000DB04C7D56065C5E7A38943F040034FF021
:10928000FF30A381BDE8F081D8F80030002B9CD0DE
:109290001D2B06D0162B04D0A38943F04003A381D5
:1092A000D9E7C8F80050D5E738B50B69BBB10D4612
:1092B000044608B18369B3B10D4B9D4211D00D4BEB
:1092C0009D4213D00C4B9D4208BFE568B5F90C30A8
:1092D0002BB129462046BDE83840FFF75BBF002090
:1092E00038BD6568F2E700F045F9E5E7A568EDE708
:1092F000A42B0108842B0108642B010838B540B366
:1093000003690446E3B1174B1D680DB1AB69CBB1DE
:10931000154B9C420FD0154B9C4221D0144B9C42C4
:1093200008BFEC68B4F90C3053B121462846BDE8BB
:109330003840FFF72FBF6C68B4F90C30002BF4D124
:10934000002038BD284600F015F9074B9C42E2D1B9
:10935000F1E7084B08491868BDE8384000F0C2BA88
:10936000AC68DFE7000C0020A42B0108842B010867
:10937000642B0108602B0108A992000800207047A7
:10938000014900F0AFBA00BFA99200080020704761
:1093900070B568224D1E02FB05F50E4605F17401FD
:1093A000FFF72EFA044640B100210C30C4E9001644
:1093B000A06005F1680200F017FC204670BD00BFF8
:1093C000274B2DE9F0411E68B369074653B3483671
:1093D0004FF00408D6E90134013B04D51EE05A1CC5
:1093E00004F168041AD0B4F90C50013B002DF6D1F9
:1093F0001C4B6566C4E90055C4E90253C4E9045531
:10940000A5610822294604F15C0000F0EDFBC4E9E7
:109410000D55C4E912552046BDE8F08135682DB1DF
:109420002E46D7E7304600F01FF8D0E74FF4D6714C
:109430003846FFF7E5F9044668B10560C0F80480D6
:109440000C302946A06025464FF4D07200F0CCFBCA
:1094500034602E46BEE70C2330603B60DBE700BF84
:10946000602B01080100FFFF2DE9F84F344B35490F
:109470001A68816290424FF00003C0E9123303651D
:1094800004BF012383610546FFF79AFF6860284601
:10949000FFF796FFA8602846FFF792FF6F68E86025
:1094A00000240423C7E9024308222146C7E90044F7
:1094B000C7E904447C66BC6107F15C0000F094FBE2
:1094C000DFF88CB0AE68DFF88CA0DFF88C90DFF8A6
:1094D0008C801D4BC7F828A0C7E9087BC7F82C90E3
:1094E000C7F830800822F360C6E90044C6E90444A6
:1094F0007466B460B461214606F15C0000F074FB50
:10950000C6E9086BC6E90AA9C6F83080EE680F4BB9
:10951000F360C6E90044C6E904447466B460B4610B
:109520002146082206F15C0000F05EFB0123C6E93B
:10953000086BC6E90B98C6F828A0AB61BDE8F88FA8
:10954000602B01088193000809000100120002004D
:109550007D9F0008A59F0008E59F000805A0000862
:10956000024B0349186800F0BDB900BF602B010829
:10957000A9920008836903B976E77047704700BF76
:10958000704700BF704700BF704700BF024B0349E0
:10959000186800F087B900BF000C00207D93000818
:1095A000024B0349186800F07DB900BF000C002091
:1095B0008D9300089368002B00F085802DE9F04F13
:1095C000B1F90C300C461907804683B0174698B2A3
:1095D00025D523691BB310F002033D682DD04FF051
:1095E000000ADFF8BCB25646B9465E4533465246DD
:1095F00028BF5B464046002E52D0216AA76AB84772
:10960000002856DDD9F808301B1A8244361AC9F8EA
:109610000830002BE9D1002003B0BDE8F08F2146CF
:109620004046FFF72DFD002840F03681B4F90C309C
:109630003D6898B210F00203D1D110F0010944D175
:109640004E46009746B38205D4F808B040F18380B7
:10965000B3455A4600F2B28010F4906F40F0BF80DC
:1096600020680192494600F043FAA368019AA3EBEF
:109670000B012368A1601344B24623600026009BBF
:109680009868A0EB0A00D14498600028C3D0B4F9D0
:109690000C0080B2002ED6D1D5E900960835D1E76E
:1096A000D5E900A60835A0E721464046FFF7FCFDB6
:1096B00080B3B4F90C3043F040034FF0FF30A38186
:1096C00003B0BDE8F08F002070471E46AA469946B9
:1096D00018461D46009756B388B34A46D4E904138A
:1096E0002068B24228BF3246884205D9A16803EB00
:1096F000010B5A4500F3A680934263DC216AA76AF6
:109700002A464046B847B0F1000BD2DDB9EB0B0951
:10971000CAD00120009A9368A3EB0B035D44A6EB2B
:109720000B069360002B3FF476AF002ED4D10AF1E4
:10973000080353E902569A460833002EF9D0324600
:109740000A21284600F084F9002800F09C800130AE
:10975000A0EB0509C1E720682369984216D8636920
:10976000B34213D86FF00042B24228BF3246216A9A
:1097700092FBF3F2A76A02FB03F340464A46B8475E
:10978000B0F1000A95DDA6EB0A0678E7B345DA46A4
:1097900028BFB2465246494600F0AAF9A36822689B
:1097A000A3EB0A035244A3602260002BEBD12146B5
:1097B0004046FFF779FD0028E5D07AE72068B346F8
:1097C00032464EE72946019200F092F9019AA368C9
:1097D0009B1AA360236813442360934696E723688B
:1097E0002169A3EB010B636903EB430A0AEBDA7A05
:1097F0000BF101034FEA6A0A33445345524684BFD2
:109800009A46524643052CD511464046FEF7F8FFCE
:1098100000283BD05A4621690190FEF71FFEA2891D
:10982000019B22F4906242F08002A28103EB0B00C4
:109830002361AAEB0B03C4F814A0A3602060B34615
:1098400032460EE729465A4600F052F923685B4437
:10985000236021464046FFF727FD00283FF456AF1E
:1098600027E7404600F016FA03460028DED12169BA
:109870004046FEF763FFB4F90C300C2223F080035E
:10988000C8F8002017E7721C914627E70C22B4F9AC
:109890000C30C8F800200EE74FF0FF30BCE600BFE8
:1098A00000FCFF7F2DE9F041884600F148070026C3
:1098B000D7E90154013D0FD4A389012B05F1FF35F0
:1098C00006D9B4F90E300133204601D0C047064313
:1098D0006B1C04F16804EFD13F68002FE8D13046DB
:1098E000BDE8F0812DE9F8430746884600F14806B7
:1098F0004FF00009D6E90154013D11D4A389012B91
:1099000005F1FF3508D9B4F90E300133214603D0F3
:109910003846C04749EA00096B1C04F16804EDD1E0
:109920003668002EE6D14846BDE8F883F0B58B894D
:109930000C46990797B007D504F147030122C4E903
:109940000432236017B0F0BDB4F90E1000290546AB
:109950002DDB6A4608F04EFA002827DB019E06F44C
:1099600070464FF48067A6F50056B6FA86F639467B
:1099700028467609FEF744FF30B3A3891A4AAA6243
:1099800043F08003C4E90407A3812060002ED9D0EE
:10999000B4F90E10284608F039FA0028D2D0A3896D
:1099A00023F0030343F00103A381CBE7A38913F062
:1099B000800F14BF40274FF48067394628460026A1
:1099C000FEF71EFF0028D8D1B4F90C309A05B9D49F
:1099D00023F0030304F1470243F002030121C4E929
:1099E0000421A3812260ADE78193000870B50C4685
:1099F000B1F90E10002996B016461D4613DB6A46D3
:109A000008F0F8F900280EDB019901F47041A1F586
:109A10000051B1FA81F14FF48063490900202960B7
:109A2000336016B070BDB4F90C3000221B062A60FA
:109A300004D540230020336016B070BD4FF480631E
:109A40000020336016B070BD000000000000000070
:109A500001F0FF01102A2BDB10F0070F08D010F8DF
:109A6000013B013A8B422DD010F0070F42B3F6D1E3
:109A7000F0B441EA012141EA014122F007047FF0FC
:109A800000070023F0E80256083C85EA010586EA53
:109A9000010685FA47F5A3FA87F586FA47F6A5FA8F
:109AA00087F68EB9EED1F0BC01F0FF0102F007029B
:109AB00032B110F8013B013A83EA010313B1F8D146
:109AC0000020704701387047002D06BF3546033827
:109AD000073815F0010F07D1013015F4807F02BF60
:109AE000013015F4C03F0130F0BC0138704700BFB1
:109AF00088420DD98B1883420AD900EB020CBAB107
:109B0000624613F801CD02F801CD9942F9D17047B0
:109B10000F2A0ED8034602F1FF3C4AB10CF1010CAA
:109B2000013B8C4411F8012B03F8012F6145F9D159
:109B3000704740EA01039B0750D1A2F1100370B5B2
:109B400001F1200C23F00F0501F1100E00F11004BB
:109B5000AC441B095EF8105C44F8105C5EF80C5CC9
:109B600044F80C5C5EF8085C44F8085C5EF8045C41
:109B700044F8045C0EF1100EE64504F11004E9D13E
:109B8000013312F00C0F01EB031102F00F0400EB94
:109B9000031327D0043C24F003064FEA940C1E4420
:109BA0001C1F8E465EF8045B44F8045FB442F9D192
:109BB0000CF1010402F0030203EB840301EB8401C6
:109BC00002F1FF3C4AB10CF1010C013B8C4411F84D
:109BD000012B03F8012F6145F9D170BD02F1FF3C63
:109BE00003469BE72246EBE7830730B548D0541E77
:109BF000002A3FD0CAB2034601E0013C3AD303F841
:109C0000012B9D07F9D1032C2DD9CDB245EA0525AD
:109C10000F2C45EA054536D9A4F1100222F00F0CAD
:109C200003F1200EE6444FEA121C03F1100242E950
:109C3000045542E9025510327245F8D10CF1010287
:109C400014F00C0F03EB021204F00F0C13D0ACF164
:109C5000040323F003030433134442F8045B9342E8
:109C6000FBD10CF003042CB1CAB21C4403F8012B45
:109C70009C42FBD130BD64461346002CF4D1F9E779
:109C800003461446BFE71A46A446E0E7704700BF04
:109C9000704700BFF8B51446F9B1CAB106460D4683
:109CA00000F0B4F9A04202D32F463846F8BD214651
:109CB0003046FEF7A5FD07460028F6D02246294685
:109CC000FEF7CCFB30462946FEF738FD3846F8BD96
:109CD0002746FEF733FD3846F8BDBDE8F84011468B
:109CE000FEF78EBD38B5446C0CB1002038BD802124
:109CF0000546FEF785FD0246686430B1031F7C32DD
:109D000043F8044F9342FBD1EFE74FF0FF3038BDEB
:109D10001F29F8B5054608D8466C0C4617464EB1C3
:109D200056F8240046F82470F8BD162303604FF05F
:109D3000FF30F8BD8021FEF763FD0646686440B140
:109D4000031F00F17C05002143F8041F9D42FBD155
:109D5000E6E74FF0FF30F8BD1F2938B5054620D89B
:109D6000426C0C466AB152F8213053B1012B16D027
:109D7000591C10D00025204642F824509847284608
:109D800038BD284600F0F8F8224601462846BDE8CE
:109D9000384000F0DBB816230360012038BD0020F6
:109DA00038BD162303604FF0FF3038BD1F292AD875
:109DB000426C38B50C46054682B152F8243002EBAD
:109DC00084024BB1591C19D0012B15D00025204617
:109DD00015609847284638BD012038BD8021FEF720
:109DE0000FFD0246686458B1031F00217C3043F820
:109DF000041F9842FBD1E0E7032038BD022038BDA4
:109E00004FF0FF3038BD4FF0FF30704738B5144B7E
:109E10001F281D681FD86A6C044662B152F82030B2
:109E20004BB1012B15D0591C0FD0002542F8205002
:109E30009847284638BD284600F09EF8224601463D
:109E40002846BDE8384000F081B816232B60012079
:109E500038BD002038BD16232B604FF0FF3038BDD1
:109E6000000C0020124B1F2870B51E6808D80D4644
:109E7000716C044649B151F8240041F8245070BD7A
:109E8000162333604FF0FF3070BD80213046FEF75F
:109E9000B7FC0146706440B1031F00F17C0C002246
:109EA00043F8042F6345FBD1E5E74FF0FF3070BD69
:109EB000000C002038B50B4B1D686C6C0CB10020F9
:109EC00038BD80212846FEF79BFC686438B1031F2B
:109ED00000F17C0243F8044F9342FBD1EFE74FF0CF
:109EE000FF3038BD000C002038B5174B1F281D6807
:109EF00026D86A6C044682B152F8243002EB840200
:109F00004BB1591C1AD0012B16D0002520461560E4
:109F10009847284638BD012038BD80212846FEF7E5
:109F20006FFC0246686458B1031F00217C3043F87F
:109F3000041F8342FBD1DFE7032038BD022038BD78
:109F40004FF0FF3038BD00BF000C002070B50C464C
:109F5000084D03460026204611461C462E6007F099
:109F600061FF431C00D070BD2B68002BFBD0236029
:109F700070BD00BFE80D002007F05EBF10B50C46B5
:109F8000B1F90E1007F00CFF002803DB636D0344EA
:109F9000636510BDA38923F48053A38110BD00BF66
:109FA000002070472DE9F0410C46B1F90C101F4616
:109FB000CB05054616460BD421F48051A1813B46C2
:109FC000B4F90E1032462846BDE8F04107F0EFBE66
:109FD000B4F90E100223002207F0E7FEB4F90C10CA
:109FE000EAE700BF10B50C46B1F90E1007F0DDFE30
:109FF000A389421C0EBF23F4805343F48053606551
:10A00000A38110BDB1F90E1007F0D3BE51F8040CB6
:10A010000028A0F10400BCBF0B58C018704700BF57
:10A02000032A70B515D940EA010C1CF0030F044651
:10A030000B4621D1194620460E680568B54204F149
:10A04000040403F1040317D1043A032A20461946F5
:10A05000F0D8541EA2B100F1FF3C013901E0C31851
:10A060000CD01CF801EF11F8012F9645A4EB0C035E
:10A07000F5D0AEEB020070BD541EECE7184670BD83
:10A08000104670BD10F4805F10B500F4807300F4CA
:10A09000007400F4806100F400620DD0002B0CBF4E
:10A0A000002010200CB140F0200009B140F0400029
:10A0B0000AB140F0800010BD181E18BF01200CB17D
:10A0C00040F0020009B140F00400002AF3D040F053
:10A0D0000800F0E7A0F58073B3F5F85F10B50C4603
:10A0E00005D2FFF7CFFF2346BDE8104018470020F8
:10A0F000F9E700000B4B10F0010F4FF0080214BFFE
:10A100001A835A8310F0020F4FF0040214BF1A830F
:10A110005A83044B10F0040F4FF0020214BF1A834D
:10A120005A83704700000240C0F30333062BC2B2CB
:10A1300013D094BF0E33063303F00F03012B10D856
:10A14000F02A10D004D8E72A8CBF002001207047E5
:10A15000F42A14BF002001207047E72A03D9F12A0E
:10A16000F7E700207047012070470000054B064AC2
:10A170001B7812789A4200D17047013303F007032D
:10A18000F8E700BFE91B0020E81B002010B5174BC3
:10A190001B7893B1164B93F90030002B0DDAEF28A2
:10A1A0004FEAD00208D8134B134400F007020120F5
:10A1B00090409A781043987010BD0F494FF0FF32CD
:10A1C000002311F8014BA042F6D0B2F1FF3F02D1BB
:10A1D000002C08BF1A460133DCB2062C5BB2F0D16A
:10A1E000531CE9D0034B1A449070E5E7C00D0020E2
:10A1F000C6140020700E0020720E0020024A137850
:10A2000023EA000010707047EA1B0020034A13780D
:10A210001BB100231370024A138070478916002077
:10A220008A160020294A1378590707D500F018012B
:10A23000082927D100F0F70040F00400190707D5DE
:10A2400000F01801182926D100F0E70040F01400B2
:10A250005278D10707D500F01801082924D100F061
:10A26000F70040F00100920707D500F01802182A05
:10A2700023D100F0E70040F01100DB0648BF00F0FA
:10A28000E700704700F01401042904BF00F0FB0050
:10A2900040F00800D2E700F01401142904BF00F0D8
:10A2A000EB0040F01800D3E700F01101012904BFD2
:10A2B00000F0FE0040F00800D5E700F01102112A7E
:10A2C00004BF00F0EE0040F01800D6E7C6140020EE
:10A2D000E72810B5044600F28E80DF280ED831281A
:10A2E0007BD015D829286DD02A287DD0012C56D0B6
:10A2F000231F9BB2A12B28BF002450E0A0F1E00354
:10A30000072B7BD8DFE803F01C7A2C313D7A474DD0
:10A3100039280BD0822809D035284CD0A72C75D8E5
:10A32000A42CE3D9243C44F4804493E0834B1A7872
:10A33000920740F0FC805B781B07EFD529242EE0C4
:10A340007E4A1378D80700F1EE80527812F0010FA0
:10A3500025D013F0100F08BFE32418BF00241EE01F
:10A36000764B1B7813F0040FF2E7744A1378590701
:10A3700000F1DB805278D00700F1D98013F0100F84
:10A38000EBE76E4B5A78910709D51B7813F0100F45
:10A3900008BFE724E1E7694B1B781A07F6D420468B
:10A3A00010BD664A1378180700F1C38052789107F0
:10A3B000E4D5E424F3E7614B1B7813F0200F18BFBA
:10A3C0002924ECE75D4B1A78920600F1B4805B78A3
:10A3D00013F0080F18BF3924E1E7584B1B7813F02E
:10A3E000400F18BF2A24DAE7544B1B7813F0400FB4
:10A3F00018BF3124D3E7B0F5A44F2DD2B4F5A24F46
:10A4000075D2E72C09D8E02C88D9C8E7A4F1A803B5
:10A410009BB2162B5ED90024C1E7B4F5A04F0FD232
:10A42000B4F5804F5ED2FF2C04D8EF2CF3D944F45E
:10A43000A0440FE0A4F580739BB2B3F5F85F5AE730
:10A44000C4F3810304F003000124844044EA43146C
:10A4500044F40D44A4B2A2E7B0F5AC4F1AD2B0F563
:10A46000AA4FC0B24CD2B4F5A84F0ED28308B4F5AF
:10A47000A64F00F003004FF0010404FA00F040EA98
:10A4800043143AD244F40C44E4E74AF2F40444EAB4
:10A49000002484E7B0F5B44F0CD2B0F5B24F37D2F8
:10A4A000A0F5B0439BB2FF2BB5D84AF2F00040EACA
:10A4B0000424CFE7A0F5C0439BB2B3F5005FAAD256
:10A4C000C0F30420FFF7AEFE000200F4F850E4B23F
:10A4D00004431AE058341A4BE4B233F8144044F4FD
:10A4E00088445CE7C4F30B0444F4204457E7E4B227
:10A4F0004AF2F10343EA042451E744F40A44A9E789
:10A50000FFF790FE040204F4F85444F4005446E7C4
:10A5100000F00F00FFF786FEC4F3031440EA0424A2
:10A5200044F4104496E7392439E7E22437E7E0247D
:10A5300035E7E62433E7352431E700BFC6140020B1
:10A54000EC2C010800207047002070477047FEE7A0
:10A550001A4B1B4A1B781089D90709D5194B1B7850
:10A560005843C0F38F007F2823D820B3C0B2704770
:10A570009A0705D5134B1B785843C0F34F00F2E7F9
:10A580005B0705D50F4B1B7813FB00F080B2EAE7A1
:10A590000D4B1B78002BE6D00C4A0A49127809783B
:10A5A00093423BBF4843584311FB00F0B0FBF2F02D
:10A5B000ECE77F2070470120704700BF7D16002028
:10A5C000EC0D0020CA0D00207E160020CB0D0020CF
:10A5D000154B1B78D90705D5144B1878800800B3A4
:10A5E000C0B270479A0703D5104B18784008F6E7B9
:10A5F0005B0705D50D4B18787F28F0D97F20704771
:10A600000B4B1B785BB10B4A0849127808789342D0
:10A6100036BF10FB03F080B2B0FBF2F0ECE7012094
:10A62000DEE70120704700BF7D160020CE0D002020
:10A630007F160020CF0D0020F02808B505D1FFF7C8
:10A6400087FF4042344BD87008BDF12802D1FFF794
:10A650007FFFF7E7F22805D1FFF77AFF40422E4B44
:10A660009870F1E7F32802D1FFF772FFF7E7F928B6
:10A6700004D1FFF7ADFF284B1871E5E7FA2803D1A5
:10A68000FFF7A6FF4042F6E7FB2805D1FFF7A0FF42
:10A690004042214B5871D7E7FC2802D1FFF798FFC1
:10A6A000F7E7F42805D11C4A537843F001035370AF
:10A6B000CAE7F52804D1184A537843F00203F6E7B5
:10A6C000F62804D1144A537843F00403EFE7F7283F
:10A6D00004D1114A537843F00803E8E7F82804D17D
:10A6E0000D4A537843F01003E1E7FD2805D10B4AEA
:10A6F000137843F001031370A6E7FE2804D1074A3C
:10A70000137843F00203F6E7FF289DD1034A13783C
:10A7100043F00403EFE700BF771600207D1600200A
:10A720003F4BF02893F902200AD193F90310002936
:10A730000CDA0021D97052B93A4A0021117006E0B2
:10A74000F1280DD193F903100029F2DC72B11A79C6
:10A750005B7913435AB2002B61D1334B1A707047A7
:10A76000F22806D1002AF1DA00229A7093F9032028
:10A77000E1E7F32802D1002AF6DCE7E7F92893F9AC
:10A78000041004D10029E1DD00211971DEE7FA2867
:10A7900002D10029DADAF7E7FB2893F9051004D192
:10A7A0000029D3DA00215971D0E7FC2802D1002911
:10A7B000F8DCCBE7F42804D1597821F00101597075
:10A7C000C4E7F52803D1597821F00201F7E7F6280C
:10A7D00003D1597821F00401F1E7F72803D1597822
:10A7E00021F00801EBE7F82803D1597821F0100196
:10A7F000E5E7FD2805D10D48017821F00101017040
:10A80000A4E7FE2804D10948017821F00201F6E707
:10A81000FF289BD10548017821F00401EFE770473C
:10A82000771600207E1600207F1600207D1600205F
:10A83000F0B5274CA55C002946D000EB40066FF030
:10A840005404FF227600B6FBF2F6744304EB400298
:10A8500002EB4200C2B2C2F1FF0011FB02F701FBA2
:10A8600000F23F121212C1F1FF04C7F1FF07C2F15B
:10A87000FF026C436F436A43C4F30724C7F30727FF
:10A88000C2F30722062E1CD8DFE806F006040C11DE
:10A89000161B06002A463D462946154659701D706E
:10A8A0009C70F0BD11462A4625460C46F4E72A4620
:10A8B000254614463A46EFE7114622462C460D46F9
:10A8C000EAE722463C46E7E72C462946E6E700BF92
:10A8D000DC2B0108064A137813F0FE0F04D1012186
:10A8E00061F3470313707047552BFCD92A21F7E712
:10A8F0002C1A002000B11047084700001D4930B550
:10A90000072201254FF4007405FA02F303400C837B
:10A9100019D0002300BF00BF00BF00BF00BF00BFB1
:10A920000133062BF6D14C8300BF00BF00BF00BF30
:10A9300000BF00BF00BF00BF00BF00BF00BF00BF1F
:10A94000013AE1D230BD00BF00BF00BF00BF00BF71
:10A9500000BF00BF00BF00BF00BF00BF00BF4C83EF
:10A9600000BF00BF00BF00BF00BF00BF0133062B08
:10A97000F6D1E5E700000240B0F5B84F04D1034B33
:10A980001B68002B08BF0020704700BFDC0D0020B3
:10A9900010B5074B074C0848084900225A6101329C
:10A9A0000A2A9C60D860196103F11803F6D110BD22
:10A9B000841A00204DFC00088DFC000821FD0008D1
:10A9C000024B1A88024B1A80704700BFEC0D002022
:10A9D000660C00200F4B104A99880A20B1FBF0F159
:10A9E00011700E4AD98811700D4A598911700D4A9B
:10A9F000998911700C49DA89B2FBF0F20A700B4A9E
:10AA0000198A11700A4A598A11709A8A094B1A7068
:10AA1000704700BFEC0D0020C80D0020C90D0020BC
:10AA2000CA0D0020CB0D0020CC0D0020CD0D002044
:10AA3000CE0D0020CF0D0020064A00231380064AC9
:10AA4000D17909B99171117201330A2B02F10C020B
:10AA5000F6D1704752160020AC13002070B50F4C91
:10AA60000F4B21780F4D1A780B469A4210D035F8CB
:10AA7000136086420DD10C4A0C2505FB00208B4249
:10AA80004FF00102827103D1134403F003032370DA
:10AA900070BD013303F00303E7E700BF401200205D
:10AAA0004112002038120020AC1300200379194213
:10AAB00016D18378B3B1027A120701EA030103D5F4
:10AAC000081E18BF0120704703F00F0001F00F02AD
:10AAD00040EA131042EA1111431A58425841704794
:10AAE0000020704701207047024B186808B10368C6
:10AAF00018477047E8120020054A1188814205D0A6
:10AB0000044B10801B680BB1DB681847704700BF0F
:10AB1000F2140020E8120020054A1188814205D075
:10AB2000044B10801B680BB11B691847704700BFAE
:10AB3000C8140020E8120020BFF34F8F0549064BD0
:10AB4000CA6802F4E0621343CB60BFF34F8F00BFCB
:10AB5000FDE700BF00ED00E00400FA0542EA012233
:10AB6000100A032811B214D00CD8012828D00228CA
:10AB70000CD1154A5B231548002A4260036008BFC8
:10AB80001046704721280DD0222812D000231A46E3
:10AB9000F1E7CBB2032BF9D80D4A0E4952F8232026
:10ABA000CB5CE8E7022BF1D80B4A52F823200923AB
:10ABB000E1E7022BEAD8094A094952F82320EFE7D6
:10ABC000084A1223D7E700BF3B2D01085C12002082
:10ABD000DC2C01081A2D0108202D01082C2D01085C
:10ABE000382D0108962D010890F84A10074A0229CD
:10ABF000137807D1012B01D0062B05D1044B5278D5
:10AC00001A707047024A1370704700BF381A00204C
:10AC1000A414002070470000014B1878704700BF53
:10AC2000A4140020704770477047C368C269013B95
:10AC3000C3604369134482694361934224BF436AFA
:10AC4000436100238362036B03B118477047436974
:10AC500002699A4201D1C26822B9184650F8043BF1
:10AC60000B6070470020704703691960C268013AA1
:10AC7000C260C269134482690361934224BF436A7C
:10AC8000036100238362036B03B118477047000020
:10AC9000C27A53099B0003F1604310B503F5614389
:10ACA00002F01F04012101FA04F4C3F88040C3F844
:10ACB000804102F1604303F56143002283F80023E1
:10ACC000837A104A9940136823EA01031360DAB2C9
:10ACD0004AB90D4A116B21F400111163116D21F471
:10ACE00000111165126D13F47F4F09D1064B1A6BD9
:10ACF00022F480021A631A6D22F480021A651B6D19
:10AD000010BD00BF6412002000380240436B4FF4B6
:10AD100000421A6000221A605A605A61036B1A6876
:10AD2000116821F01F0111601168C907FCD4597A1C
:10AD30005A683D238B401360C36A1A68116821F07A
:10AD40001F0111601168C907FCD4597A5A683D2364
:10AD50008B4013607047000011F00C0F10B504D049
:10AD600072B60C4B0C4ADA65FEE7036B446B1A684B
:10AD7000116821F01F0111601168C907FCD4597ACC
:10AD80005A683D238B401360636843F4007363602B
:10AD900010BD00BFF00F0020C42B010803890A4634
:10ADA0001BB98178008807F091BC1846704708B538
:10ADB000034608465988914205D80A465968FDF766
:10ADC0004DFB002008BD4FF0FF30FBE7032A07B51D
:10ADD000084614D90B4A1378527802F0010143EA6D
:10ADE0000123C2F3400243EA422304220DEB020195
:10ADF0000193FDF733FB002003B05DF804FB4FF037
:10AE0000FF30F9E7C6140020074B1B78023043B12E
:10AE1000064B93F90030002B03DA1E220021FEF7C7
:10AE2000E3BE0622FAE700BFC00D0020C6140020D2
:10AE3000406B07F072BAF8B5046805460E46002765
:10AE4000AC4200D1F8BDE3683343E36023691E429E
:10AE50000AD06068A368C2691343027DC3610A2AED
:10AE600004D18269134207D12468E9E70B2AFBD198
:10AE7000826932EA0303F7D1876107F025FAF3E725
:10AE800008B50846302383F311880A7D0023052A7C
:10AE900006D8DFE802F00B050503120E8269136085
:10AEA0004FF0FF33836107F00FFA002383F311881B
:10AEB00008BD826993680133936042680368136038
:10AEC0005A60EDE737B50B0A044615468DF80510B4
:10AED0008DF8043001A964230222A02007F054FD5C
:10AEE0006423AAB22146A02007F086FD03B030BD3E
:10AEF00007B50023014601220DF107008DF8073048
:10AF0000FFF7E0FF9DF8070003B05DF804FB10B504
:10AF10000420FFF7EDFF04462220FFF7E9FF44EA93
:10AF2000002080B210BD08B52320FFF7E1FF4028C4
:10AF300001D0002008BD2420FFF7DAFF4E28F8D109
:10AF40002520FFF7D5FFA0F1920358425841F1E7C1
:10AF500013B50024022221460DF10600ADF806408B
:10AF6000FFF7B0FFBDF806204FF6E8639A4204D120
:10AF700002B0BDE81040FFF7D6BF204602B010BDBA
:10AF800008B52620FFF7B4FF08BD032838B515D84B
:10AF9000072913D80F2A11D8520002EB411202EBF5
:10AFA000002505F12700FFF7A3FF000284B205F199
:10AFB0002800FFF79DFF204380B238BD0020FCE74A
:10AFC00070B50B4D40F2274440F24B462046FFF748
:10AFD0008FFF0134B44205F8010BF7D1054D15245C
:10AFE0002B6903B19847013C05F11405F8D170BDF8
:10AFF000EC0D0020F03501087FB5642200211248D5
:10B00000114E124DFEF7F0FD104878220021FEF798
:10B01000EBFD40F2AF4421460A2201A82E60FFF763
:10B0200051FF3046082201A9FDF718FABDF80C308F
:10B03000AB800A3440F213539C4206F10A0605F134
:10B040000C05E8D104B070BD24140020AC1300201E
:10B05000F0B52B4C2B4E2C4F85B040F213552946A2
:10B060000A2201A846F8044BFFF72CFF002110220A
:10B0700004F10800FEF7B8FDBDF8043023809DF808
:10B080000A30A370BDF80830E3709DF80B302371CF
:10B090009DF80C309DF90D206371BDF80630E380FA
:10B0A0009DF80D30002AA8BF6761D90744BF01226F
:10B0B00022729A0742BF227A42F002022272580795
:10B0C00042BF227A42F004022272190742BF227A5A
:10B0D00042F008022272DA0642BF227A42F01002DF
:10B0E00022729B0642BF237A43F0200323720A3563
:10B0F00040F253639D4204F11804B0D105B0F0BD95
:10B10000101700208C1600208E1B002038B590F8F8
:10B11000443003F07F02212A04466DD113F0800FE2
:10B1200090F845001FD0022817D003280BD0012823
:10B1300062D194F84830002B51D1494AA2632022B1
:10B14000E263236408E0B4F84820002A54D1454B58
:10B15000A3630120E063226438BD434BA363012055
:10B16000E0630023EDE70A283DD00B280ED0092824
:10B1700042D194F8482012F0FD0F3DD13B4BA36320
:10B180000223E3633A4B23640120E5E7B4F8483037
:10B190002BBB94F84650334B002D14BF01210021E6
:10B1A0001970344B1A7861F3C7121A7017D12E4BED
:10B1B0001A78A2B1302282F3118818782E4BA0FBA6
:10B1C00003034FF47A72002300F2E7300021FCF70A
:10B1D000C3FF2146800006F0DDFF85F311880023C0
:10B1E000A363E363CFE723491F4B097894F8472013
:10B1F0001A70CD09F3D1DCE7B4F8441040F2816253
:10B20000914216D194F84920616894F848304D680D
:10B2100094F8471043EA0223204694F84620A847B2
:10B2200008B9002098E74368A3630368E363002339
:10B23000A9E7124A92F89220002AF2D003F06003A4
:10B24000202BEED194F84530212B05D81F2BE8D9BF
:10B250000B4BA3630723E9E7222BC0D0E1E700BF34
:10B26000A5140020C00D002088140020381A0020EA
:10B27000E9AB0008C6140020A0860100840C002061
:10B28000C10D0020093110B550F821402CB33023F6
:10B2900083F3118804216018FFF7CDFDE26F136876
:10B2A000527903EB820304F10C00DB689B695A6856
:10B2B000E3691A60A2690132A261A26A1344626A58
:10B2C000E361934224BF236BE36107F00BF8204650
:10B2D00007F023F8002383F3118810BD054BD968CC
:10B2E0000875186802681A60536001220275D860F8
:10B2F000FCF718BFF00F0020302383F31188104BA8
:10B300005B6813F4006317D0F1EE103AEFF3098392
:10B31000683B4FF08072DA610A4AD26B1A6683F397
:10B320000988094A1168D2688968926891428CBF7D
:10B33000064A074A9A61704783F31188704700BF35
:10B3400000ED00E000EF00E0F00F00204F8100086A
:10B35000528100082DE9F84300EB81060746506949
:10B36000F2600C4615460FFA81F818B1142200213C
:10B37000FEF73AFCA86918B114220021FEF734FC4C
:10B38000F2687D6D166806F00306731E022B05EB4E
:10B3900044134FF00001C3F8101B4FF0010104F1FA
:10B3A000100398BFB60401FA03F391698EBF354EBE
:10B3B00006F1805606F50046600100293ED0B2F83D
:10B3C00012C004F1580149014CEA060C45F801C0CD
:10B3D000D5F81C180B43C5F81C382B180021C3F8EE
:10B3E000101953694FF00109611E09FA04F993B36A
:10B3F000138A928B9B08012A88BF5343FA6D9818D1
:10B4000042EA034301F1400205EB8202F86507EBD3
:10B41000880753602146284606F04CFFFB681B8ACC
:10B4200043EA8453483464011E432E51D5F81C3836
:10B4300049EA0303C5F81C38BDE8F88305EB481C4E
:10B44000DCF8001B21F40041CCF8001BD5F81C18D7
:10B4500021EA0303BFE704F13F0305EB83030A4A34
:10B460005A6005EB48172146284606F023FFD7F817
:10B47000003923F40043C7F80039D5F81C3823EA13
:10B480000903D7E7008000100004000237B5052942
:10B4900077D8DFE801F05A76035A5A78302383F3DD
:10B4A0001188424C424A01900121FFF753FF414A63
:10B4B00001980321FFF74EFF94F89010019804F1D2
:10B4C0004402FFF747FF94F89210019819B104F174
:10B4D0006802FFF73FFF0025D4F8E0303648C4F893
:10B4E000D030C4F8CC30C4F8C850C4F8E450C4F824
:10B4F000E85006F003FFD4F81431C4F800312F48A7
:10B50000D4F81831C4F80831C4F8043184F8C450B0
:10B51000C4F81C51C4F8205106F0F0FE012128485F
:10B5200084F8FC50FFF787FC264806F0F6FE85F30A
:10B530001188254B1B7813B1052006F00FFF022060
:10B5400003B0BDE8304006F009BF084606F006FF2C
:10B55000302383F31188154C022104F1B400FFF766
:10B560006AFC012504F1BC0084F8C45006F0C6FE54
:10B5700004F1F40084F8FC5006F0C0FE002383F3CD
:10B58000118803B030BD302383F31188074C0121AB
:10B5900004F1B400FFF74FFC002384F8C43084F8B2
:10B5A000FC3083F311880520CAE700BF840C00201B
:10B5B000DC30010820390108400D0020780D002002
:10B5C000380D0020340D0020F1140020F0B400EB01
:10B5D00081040789E468012564698D403D43058144
:10B5E00023600023A2606360E360F0BC06F083BBCD
:10B5F00013B5446BE36F1A681178042915D1217AC9
:10B60000022912D11979128901238B4013420CD1DE
:10B6100001A904F14400FFF71AFB024628B1E46FC8
:10B62000019B21792068FFF7D1FF02B010BD000017
:10B6300073B5302383F311882C4CD4F82C311A685D
:10B64000117804294CD194F8B810022948D11979FD
:10B65000128901238B40134242D1D4F80431D4F82B
:10B66000082193423CD1D4F80021002A38D0D4F8E4
:10B670001C21002A34D0043AD21A31D01A60D4F8EE
:10B6800000211B48013AC4F80021D4F810211344CA
:10B69000D4F80C21C4F80431934224BFD4F81831F3
:10B6A000C4F80431002601A9C4F81C61FFF7CFFAE1
:10B6B000D4F82C311A7E054652B101981A693146E8
:10B6C000121A2844FEF790FAD4F82C311B69019322
:10B6D000D4F82C01019B017900682A46FFF776FF18
:10B6E000002383F3118802B070BD00BF840C0020DA
:10B6F000780D002038B50C46302383F311880B7881
:10B70000042B03D0002383F3118838BD124B1B7820
:10B71000DB09F7D1114D2B78002BF3D0104B1B78A0
:10B72000002BEFD00B899B0705D40E4A082301217B
:10B730002046FFF74BFF28780B4BA0FB03034FF489
:10B740007A72002300F2E7300021FCF705FD214664
:10B75000800006F01FFDD5E7C614002088140020E5
:10B76000C00D0020A5140020A0860100F0B500EB5C
:10B77000810385B09C6905460E465CB3302383F394
:10B78000118805EB8607201D0821FFF754FBFB6895
:10B790005B691B6804F144007BB1236D226E01904C
:10B7A00001332365A36D1344E26DA365934224BF67
:10B7B000A36EA36506F096FD019803A9FFF747FA6B
:10B7C000024648B1039B31462846FFF7FFFE00239F
:10B7D00083F3118805B0F0BDFB685A691268002A2E
:10B7E000F5D01B8A013B1342F1D1E36F1B7E002B86
:10B7F000EDD105F14402E6E710B590F83430142B92
:10B8000004462ED01CD8062B05D001D81BB110BD84
:10B81000093B022BFBD8636DD3F8002942F40012D8
:10B82000C3F80029D3F8002B42F40012C3F8002B10
:10B8300063681B6813B1062120469847062319E068
:10B84000152BE4D10B2380F83430302383F3118897
:10B8500000231A461946FFF7B9FE002383F3118827
:10B86000D5E7C3689B695B68002BD0D1036C03B13B
:10B870009847002384F83430C9E7704737B5ADF8EE
:10B880000400C0F3072007281ED89DF804200F2AC3
:10B890001AD802EB001302F0070201209040C3F314
:10B8A000CF030A4A03EB4303C0B21344002413F846
:10B8B000015F21FA04F242F300026A4002400134BF
:10B8C0006A40032C1A70F2D103B030BD4F1A002029
:10B8D00013B5ADF80400C0F3072007281BD89DF866
:10B8E00004300F2B17D803EB00100C4CC0F3CF0023
:10B8F00000EB40000022044403F007011046A35C63
:10B90000CB4003F00103934001321843032AC0B235
:10B91000F5D102B010BD0020FBE700BF501A002097
:10B9200010B5124B1B789BB1114B93F90030002BD3
:10B930000EDAEF284FEAD00209D80E4B134400F07C
:10B94000070001228240987820EA0200987010BD1A
:10B95000094A0623002112F8014B013BA04208BF0F
:10B9600002F8011C13F0FF03F5D1F0E7C00D002031
:10B97000C6140020700E0020720E0020024B1A78B0
:10B9800010431870704700BF221A0020024A137833
:10B9900023EA000010707047221A002008B5034601
:10B9A000092B084608D80A2240F24B4102FB03113A
:10B9B000FFF788FA002008BD4FF0FF30FBE70000DA
:10B9C00017B4104BADF804101B68CBB99DF80510E7
:10B9D0009DF80420F02908D1F02A01D10A4B1B88D8
:10B9E000184603B05DF8044B70470328F8D80729C0
:10B9F000F6D80F2AF4D803B05DF8044BFFF7C5BAA8
:10BA00000023EDE7941B00201E1300207FB5104B90
:10BA1000ADF804001E780F4B1B7807241E4346FA2E
:10BA200004F3DB07E5B205D4013CF8D20025284633
:10BA300004B070BDBDF80430ADF80C300399284651
:10BA4000FFF7BEFFFEF744FC80B20128ECD0EEE722
:10BA5000001500204D1200201FB5ADF8040001981C
:10BA6000FFF7D4FFBDF80430ADF80C300399FFF7B1
:10BA7000A7FF05B05DF804EBFEF72ABC13B504463A
:10BA8000014606226846FCF7E9FCA38893B1BDF89D
:10BA900000204FF6FF739A420CD0208930B1FEF798
:10BAA00017FC02B0BDE81040FEF73EBB2088FFF750
:10BAB000D3FFF6E7002002B010BD000030B5012230
:10BAC000C0F30315074C00F00F00824034F9153025
:10BAD00012B219B1134324F8153030BD23EA020322
:10BAE000F9E700BFCA0F002070B5302383F3118837
:10BAF0004FF08043114812495C6A03680A68E41AEF
:10BB0000A242104A0AD9A3F58333E03B03601068D0
:10BB10000D4B04F583340344E03413600C60166865
:10BB2000002181F311880948094A4FF47A750023EE
:10BB3000E4FB0501FCF710FB304470BD881B0020BE
:10BB4000F81400208016002088598F029F8601007B
:10BB5000A086010010B5074C608850B1FFF7C4FF04
:10BB6000054B1B88C01A638880B283428CBF0020BB
:10BB7000012010BDEC0D00208A16002070B52D4B61
:10BB80002D4A1B7812782D4C2D4D134323702B78A2
:10BB9000FBB12C4B5B8823B1FFF7DCFF08B1FEF74C
:10BBA00035FB23782A7813432370274B1B78002B0F
:10BBB00036D0264B93F90030002BACBF06231E2352
:10BBC00023490022013BDBB2FF2B2BD10AB1FEF748
:10BBD0001DFB204B25781B781F49184825EA0305D3
:10BBE0001E4B1B7820221D432570FEF719FA00B367
:10BBF000124919482022FCF731FC194B1B68C3B1CC
:10BC0000114A12783AB1114A92F90020002ABEBFB7
:10BC1000062265702270BDE870405B6807481847CF
:10BC20000623CDE711F8010B0028CBD00132D2B2A8
:10BC3000C8E770BD221A0020EA1B0020700E002009
:10BC400089160020EC0D0020C00D0020C614002035
:10BC5000720E0020801A0020D1140020EB1B00205F
:10BC6000E812002008B528B1FFF788FEBDE80840BB
:10BC7000FFF784BF08BD000028B1034B1A781043BA
:10BC80001870FFF77BBF7047EA1B002008B528B18A
:10BC9000FFF77CFEBDE80840FFF770BF08BD08B5A0
:10BCA00028B1FEF7ABFABDE80840FFF767BF08BD53
:10BCB0000F4908B50B7802206FF3C3030B70FEF732
:10BCC0009DFA0B78D80605D56FF3041302200B708C
:10BCD000FFF754FE0B789A0605D56FF34513202025
:10BCE0000B70FFF74BFEBDE80840FFF747BF00BFF2
:10BCF000640C0020036910B504460BB141699847F4
:10BD0000E078FEF77BFA2079FFF740FEFFF736FF79
:10BD100000232360A38010BD43799A0710B5044621
:10BD200011D40F4A43F0020311784371C3780079AC
:10BD30000B431370FFF722FEFFF720FFE36813B1F8
:10BD4000616920469847074B00221A806379DB0718
:10BD500004D42046BDE81040FFF7CCBF10BD00BFA3
:10BD6000EA1B0020B60F002038B5074B5B785B0755
:10BD7000044608D5054D2B78834204D0FFF7B4FE66
:10BD8000034B2C70188038BDC61400208916002083
:10BD90008A16002010B5FFF7A7FE0D4BDA789978C8
:10BDA0000A4318BF0B4A197980B218BF10805A791C
:10BDB0000A431CBF084A1080084A126832B10221A7
:10BDC0001970BDE8104093680148184710BD00BFC6
:10BDD00077160020FC140020FE140020E81200203A
:10BDE00010B50446002857D0031FDBB2A02B27D87C
:10BDF0002A4B1B78A3B12A4B93F90030002B0FDAA2
:10BE0000284B03EBD00300F007019A7801238B4005
:10BE10001A420ED02046FFF783FDFFF7AFFE08E081
:10BE2000214A002312F8011B8C42F3D00133062B68
:10BE3000F8D12046FEF7AAF9BDE81040FFF79EBEF4
:10BE400000F12003DBB2072B07D800F00704012024
:10BE5000A040C0B2FFF792FDEEE700F15B03DBB25A
:10BE6000022B05D82438BDE8104080B2FEF744BE4E
:10BE700000F15803DBB2162B06D80C4ABDE810407F
:10BE800032F81300FEF748BEEF2805D9FEF7D4FBC1
:10BE9000BDE81040FFF77EBF10BD00BFC00D002001
:10BEA000C6140020700E0020720E0020EC2C010839
:10BEB000A0F1E003072B10B5044600D940B90549AD
:10BEC0002046FEF707F9E0B2BDE81040FFF788BF53
:10BED0000149F6E765BC000879BC000808B590B3D5
:10BEE000021FD2B2A02A05D8FFF71AFDBDE808400C
:10BEF000FFF744BE00F12002D2B2072A07D800F0B3
:10BF0000070301209840C0B2FFF740FDEEE700F1C3
:10BF10005B02D2B2022A04D8BDE808400020FEF736
:10BF2000EBBD00F15802D2B2162A04D8BDE8084091
:10BF30000020FEF7F1BDEF2805D9FEF7F1FBBDE8C3
:10BF40000840FFF727BF08BD10B50446C0B2FFF791
:10BF5000C5FFA4F1E003072B00D92CB90349204603
:10BF6000BDE81040FEF7B6B80149F8E78DBC0008FF
:10BF70009FBC000810B50020FEF7BEFD0020FEF7B4
:10BF8000CBFD0A4B00241C70FFF7F8FD2146084842
:10BF90000622FDF729FE074B1C70074B1C70074B50
:10BFA0001C70BDE81040FFF7F5BE00BFEA1B002083
:10BFB000771600207E1600207F1600207D160020B8
:10BFC00008B5054B054800221A70FEF71DFFBDE8B5
:10BFD0000840FFF7CFBF00BF221A0020700E0020DC
:10BFE000044A012303FA00F0137818431070FFF796
:10BFF000C1BF00BF00150020094A5278520708B59A
:10C000000AD5084B41EAC0011970FFF7E9FFFFF7B5
:10C010006BFD054B188008BDBDE80840FFF7E0BF89
:10C02000C61400208416002086160020044A01232E
:10C0300003FA00F0137823EA00001070FFF79ABFAC
:10C040000015002038B50C4C94F9003023EA0000AC
:10C0500040B210F0070520700DD1DBB283420AD048
:10C06000064B5B785B0706D5C0F3C700FFF7DEFF22
:10C07000034B25701D8038BD84160020C614002097
:10C0800086160020F8B50B4B0B4E1F680B4D04466F
:10C09000FFF72AFDC01BB0F5FA7F06D237604FF4D8
:10C0A000FA732B60064B1C80F8BDFFF71DFD322391
:10C0B0003060F6E7CC14002054120020501200200B
:10C0C00058120020534A544B52F8041C994210B5A0
:10C0D0000CD1002342F8043C83F314884F4B1A68B8
:10C0E00082F3088862B65B689847FEE74C4C4D497E
:10C0F00023694D4843F01F032361236923F01F0385
:10C1000023612369236B43F01F032363236D43F0F3
:10C110001F032365236D05F034FE4449444805F0B0
:10C1200030FE4449444805F02CFE4449444805F09B
:10C1300028FE4449444805F024FE4449444805F09B
:10C1400020FE4FF080532364424B4FF400421A60AC
:10C15000236843F00103236023689B07FCD5A36891
:10C1600023F00303A3602E4B9A6812F00C02FBD15C
:10C17000196801F0F90119609A601A6842F4803276
:10C180001A601A689403FCD55A6F42F001025A678C
:10C19000234B5A6F9007FCD52F4A5A601A6842F019
:10C1A00080721A602B4A53685904FCD51C4B1A68DC
:10C1B0009201FCD5294A9A600322C3F88C20284BAF
:10C1C0001A68284B9A42284B21D1284A1168284ADC
:10C1D00091421CD14FF481721A60234A136803F014
:10C1E0000F03022BFAD10E4B9A6842F002029A60BA
:10C1F0009A6802F00C02082AFAD15A6C42F4804282
:10C200005A645A6E42F480425A665B6E10BD40F228
:10C210000272E1E700000120EFBEADDE0000FF1F6B
:10C220000038024030300108000002404C30010864
:10C230000004024068300108000802408430010810
:10C24000000C0240A030010800100240BC30010880
:10C25000001C024000700040042A4107001088388A
:10C26000002004E011640020003C024000ED00E0EA
:10C2700041C20F417047FEE770B5144C0825606855
:10C280002368A268043B01468A4219D8D31C1B1AB2
:10C29000C11E23F003038A4238BF00231844E36819
:10C2A000DA1C121AC11E22F00302994288BF002232
:10C2B0000021FDF799FC013D04F11004DFD170BDB0
:10C2C00053F8046F41F8046BDEE700BF94370108B0
:10C2D000034A516853685B1A9842FBD8704700BF05
:10C2E000001000E010B503689C68A2420CD85C689E
:10C2F0008A600B604C602160596099688A1A9A6064
:10C300004FF0FF33836010BD1B68121BECE7000089
:10C31000022910B538BF022102234FF08044421891
:10C320006263626A101A814203D8591C0B46104698
:10C33000F5E7022B81BF034AD36A43F00103D362BE
:10C3400010BD00BFF00F0020194A1369984210B4C5
:10C350000FD00368416884680B6059609968214474
:10C360009960002303604FF0FF3393615DF8044B45
:10C3700070471346016843F8101F00244B600460A7
:10C380001169994203D14FF08043DC60EEE78B687E
:10C39000806803448B604FF08041486AD169421A3B
:10C3A0009342E3D9091A5DF8044B1944FFF7B0BF73
:10C3B000F00F002030B50E4BDD684B1C87B00446F3
:10C3C00012D00C4B0393684600230593049505F0A7
:10C3D000B7FE2046FEF782FF009B13B16846FFF7C9
:10C3E000B3FFA86907B030BDFEF778FFF9E700BFDB
:10C3F000F00F002081AE0008054BDB6821B103601F
:10C4000098610320FFF7D6BF4FF0FF30704700BFA1
:10C41000F00F002038B50546302383F311881D4CFA
:10C420002378042B20D11C4A238992F90020002A6A
:10C430001EDA1A4A1278DAB11A070BD420232A46D8
:10C4400003211448FFF7C2F8202229461448FCF7BC
:10C4500005F809E0A36958694FF0FF310C30FFF788
:10C46000CBFF2378042BE9D0002383F3118838BD58
:10C470009B0703D408232A460121E2E72369586970
:10C480004FF0FF310C30FFF7B7FF2378042BEBD1CF
:10C49000F0E700BF100E0020C6140020C00D0020E1
:10C4A000A514002007B53023024683F311880F4BF3
:10C4B0001978042905D0002383F3118803B05DF8AF
:10C4C00004FB198909070AD59B69019058694FF443
:10C4D0007A710C30FFF790FF0130019AEBD00348DE
:10C4E00006230321FFF772F8E5E700BF100E0020D6
:10C4F00038B505460C46302383F311880F4B1A7864
:10C50000042A03D0002383F3118838BD1A89120747
:10C5100008D59B6958694FF47A710C30FFF76CFFAE
:10C520000130EFD0064A054854700323240A194607
:10C5300015709470FFF74AF8E4E700BF100E002072
:10C54000231A002001460320FFF7D2BF0146042032
:10C55000FFF7CEBF70B5114E04460D46E3683BB100
:10C5600023691A1DA262E2691344E36200200EE00F
:10C57000237A6BB9F36875B162681C605A6029460A
:10C58000136004206360FFF715FF0028E6DA70BD32
:10C590006FF00100FBE74FF0FF30F8E7F00F0020ED
:10C5A00070B530230D460446114683F31188866A20
:10C5B0002EB9FFF7CFFF10B186F3118870BDA36AC3
:10C5C0001D70A36AE26A01339342A36204D3E16956
:10C5D00020460439FEF748FB002080F31188EDE780
:10C5E0004FF0FF324430FFF7DBBF4430FFF7D8BFD6
:10C5F0002DE9F84F04460E46904699464FF0300A12
:10C600008AF311880025AB46A76A4FB949462046F0
:10C61000FFF7A0FF20B187F311882846BDE8F88F07
:10C62000E76AA06A3A1AA8EB0507974228BF17469F
:10C63000402F18D931464022FBF710FFA36A403340
:10C640004036A3624035A26AE36A9A4204D3E169A4
:10C6500020460439FEF708FB8BF311884545DCD2F0
:10C660008AF31188D0E731463A46FBF7F7FEA36A12
:10C670003B443E44A3623D44E5E74FF0FF33443082
:10C68000FFF7B6BF4430FFF7B3BF000070B5114EDF
:10C6900004460D46E3683BB16269131D1268A3624C
:10C6A0001344E36200200EE0237A6BB9F36875B19E
:10C6B00062681C605A602946136004206360FFF7BB
:10C6C00079FE0028E6DA70BD6FF00100FBE74FF05D
:10C6D000FF30F8E7F00F002070B53023044683F3F5
:10C6E0001188866A3EB9FFF7D1FF054618B186F377
:10C6F0001188284670BDA36AE26A13F8015BA36241
:10C70000934202D32046FEF790FA002383F3118868
:10C71000EFE74FF0FF310C30FFF7DEBF0C30FFF7D3
:10C72000DBBF2DE9F84F04460E46904699464FF080
:10C73000300A8AF311880025AB46A76A4FB94946EB
:10C740002046FFF7A3FF20B187F311882846BDE8F4
:10C75000F88FE76AA16A7A1AA8EB0507974228BF03
:10C760001746402F16D930464022FBF777FEA36AC2
:10C7700040334036A3624035A26AE36A9A4202D34C
:10C780002046FEF752FA8BF311884545DED28AF334
:10C790001188D2E730463A46FBF760FEA36A3B4475
:10C7A0003E44A3623D44E7E74FF0FF330C30FFF710
:10C7B000B8BF0C30FFF7B5BF0D4B1868D9680268D9
:10C7C00010B453601A6001220275D86000230B7503
:10C7D0008A680B691B689C689442FBD85A680B6096
:10C7E0004A605DF8044B11605960FBF79BBC00BFC9
:10C7F000F00F0020302383F31188034BDB6898612E
:10C800000F20FEF76BBD00BFF00F002008B50146FA
:10C81000302383F311880820FFF7CCFD002383F336
:10C82000118808BD38B50A4B39280CBF1C8CDC8B2D
:10C830000546FFF7D5FA24B92846BDE83840FFF78A
:10C840004DBB6420013CFFF7E1FFA4B2F3E700BF5A
:10C85000EC0D00202DE9F04180468AB017460E46C7
:10C8600006F01F04C4F12004330ABC428DF80430E2
:10C8700028BF3C468DF805600023DDB2A54203F1D8
:10C88000010311DBA21C642392B201A9A02006F0CF
:10C890007BF84FF4FA70FFF7B9FF3F1BA044264422
:10C8A000DED10AB0BDE8F08105F128026A4418F82B
:10C8B000051002F8221CE0E737B50C460546FEF7E6
:10C8C00017FBA04207D0012229460DF107008DF881
:10C8D0000740FFF7BFFF03B030BD10B5C1B204463B
:10C8E0000420FFF7E9FF210A2220BDE81040FFF7EE
:10C8F000E3BF0000094A08B55378C3F380018142C1
:10C900000AD060F3820353701088FFF7E6FFBDE89A
:10C9100008400220FFF796BB08BD00BFC6140020E8
:10C92000032A07B518D904220DEB0200FBF796FD88
:10C93000FFF746FB0A4A0198138823F47F7323F01C
:10C940000303C0F309001843108080B2FFF7C5FF4E
:10C95000002003B05DF804FB4FF0FF30F9E700BFA3
:10C96000C614002010B5041E14BF4021FF2123204F
:10C97000FFF7A2FF002C14BF4E21FF212420FFF758
:10C980009BFF002C18BF9221BDE8104008BFFF217B
:10C990002520FFF791BF032838B51D4614D8072975
:10C9A00012D80F2A10D8520002EB411202EB0024D9
:10C9B000190A04F12700FFF77FFFE9B204F128000C
:10C9C000BDE83840FFF778BF38BD10B540F253647A
:10C9D000204600210134FFF76FFFB4F5005FF7D167
:10C9E00010BD000070B5094D40F2274440F24B469F
:10C9F0002046FEF77DFA15F8011B814202D0204641
:10CA0000FFF75AFF0134B442F2D170BDEC0D0020A3
:10CA100008B54388934207D81A464068FBF71EFDC5
:10CA2000FFF7E0FF002008BD4FF0FF30FBE70000FC
:10CA300008B5174BAF221A8041F288325A800A2279
:10CA40009A805A81DA8128229A823222DA82082058
:10CA50001421C822D980188158821A830020052207
:10CA60001E219981588350219A831982D883198471
:10CA700083F82220FFF7B6FFFFF7A2FA054B4FF429
:10CA800080601880FFF729FFBDE80840FEF798BADC
:10CA9000EC0D0020C61400202DE9F04F384FDFF8D0
:10CAA000E4A0D7F8008001238DB03B600024D1467C
:10CAB00000265FFA84FB17E0032C1CBF39F8153001
:10CAC0000191EAB212BF58460123204605F1010543
:10CAD00008BF0191FFF75FFF102D0199ECD10136DE
:10CAE000082E09F1200902D00025F1B2E4E7013453
:10CAF000042C0AF5807ADAD1FFF79AFF0023ADF80B
:10CB00002430ADF82630ADF82830ADF82A30C823EF
:10CB1000ADF82C3040F24B4440F2AF4521460A229A
:10CB200009A80A34FFF796FEAC42F7D10023CDE9FD
:10CB30000633ADF8203040F2135521460A2206A8EC
:10CB40000A34FFF787FEAC42F7D100230493039326
:10CB50008DF814304FF6FF73ADF8103007238DF8C1
:10CB6000153040F2536521460A2203A80A34FFF724
:10CB700071FEAC42F7D1C7F800800DB0BDE8F08F70
:10CB8000DC0D0020C432010808B50020FFF7EAFEE2
:10CB900026200021FFF790FEFFF77EFFFFF715FF2D
:10CBA000BDE808400120FFF7DDBE37B500230D4684
:10CBB0000446014602220DF10600ADF80630FEF7EC
:10CBC00081F9BDF806309D4207D0022221460DF1C1
:10CBD0000600ADF80650FFF73DFE03B030BD37B597
:10CBE000042200230D46044601460DEB020001938A
:10CBF000FEF768F9019B9D4206D0042221460DEB09
:10CC000002000195FFF726FE03B030BD07B5019085
:10CC1000FDF760FE0199082003B05DF804EBFFF713
:10CC2000DEBF0000034B0448186000221A71FFF7B2
:10CC3000EDBF00BF2C1A00200300FFFF044A137948
:10CC40001068022B9CBF01331371FFF7DFBF00BFD9
:10CC50002C1A0020034A13790BB1013B13711068A1
:10CC6000FFF7D4BF2C1A002010B588B02022002175
:10CC70006846FCF7B9FF002421462022684620348C
:10CC8000FFF7E8FDB4F5005FF6D108B010BD000075
:10CC900010B5FFF7E9FF4FF6E8610020FFF785FFC9
:10CCA00000210220FFF708FE002103200024FFF7E7
:10CCB00003FE204B214604201C70FFF7FDFD0421DC
:10CCC0002220FFF7F9FD21460520FFF7F5FD21465B
:10CCD0000620FFF7F1FDFF210720FFF7EDFD2146BC
:10CCE0000820FFF77CFF21460D20FFF7E5FD2146D8
:10CCF0001820FFF774FF21461720FFF7DDFD2146BE
:10CD00001C20FFF76CFF21462020FFF74EFF214635
:10CD10001820FFF764FF2046FFF724FEFFF734FFDB
:10CD200021460F20FFF75BFF21461320BDE810408E
:10CD3000FFF755BF4D12002003682BB1002202609F
:10CD40009961184605F0C0BA7047000011F00C0F49
:10CD500038B504D072B6154B154ADA65FEE7C26ADB
:10CD6000436B11680C6824F01F040C600C6814F00D
:10CD70000104FBD1557A51683D22AA400A605A68E5
:10CD800022F480525A601A6822F480621A601A688B
:10CD900042F400721A60302383F3118821461C305C
:10CDA000FFF7CAFF84F3118838BD00BFF00F0020E1
:10CDB000C42B0108EFF3098305494A6B22F00102F5
:10CDC0004A63683383F30988002383F3118870472B
:10CDD00000EF00E0F8B50446302383F311880778AC
:10CDE000456B4160012F3AD140F25643836240F2D5
:10CDF000164343624E4B984231D14E4E4E49336AF0
:10CE000043F400133362336A23F4001333620020C7
:10CE1000336A05F0F3F84949E062062005F0EEF8C0
:10CE2000336C206343F400133364336E43F4001314
:10CE30003366336E424B50224FF0004183F81F237C
:10CE4000C3F88011196083F82023C3F884715F60F0
:10CE5000626A3C49A36A0A430B436262A362E36AC3
:10CE6000616B1A68606805F110039360226B1268A9
:10CE700093604FF400432B604FF4106200232B604B
:10CE80006A604E684268077A26F03F063604360C20
:10CE90004E604E6846F02A064E602B4EB2421FDCB2
:10CEA00052002A4BB3FBF2F32B22C3F30B030A62AB
:10CEB000CB6102780B68022A9BB22FD0032A33D0B1
:10CEC000012A02D123F00A039BB20B602B6843F0C6
:10CED00001032B6002232370002080F31188F8BD2A
:10CEE0001B4EB242E4DC022F0AD102EB4206174A83
:10CEF000B2FBF6F292B21A4342F400430D22D6E797
:10CF0000032F01BF19235343104AB2FBF3F212BFA0
:10CF100040F6FF7292B24FF48043ECE723F008032F
:10CF20009BB243F00203D0E743F00A03CDE700BF12
:10CF3000F81B0020003802404DCD000859AD000814
:10CF400000E100E000000302A086010080DE800214
:10CF5000801A060010B53023044683F31188037845
:10CF6000012B27D0FDF7D2FE006BFDF791FEE06AA2
:10CF7000FDF78EFE134B00229C422263E26219D120
:10CF8000114B4FF00041C3F88010C3F8801101210C
:10CF900083F81F23C3F88410C3F8841183F8202377
:10CFA0000A4B1A6C22F400121A641A6E22F4001250
:10CFB0001A661B6E002301226360227083F31188BE
:10CFC00010BD00BFF81B002000E100E00038024067
:10CFD000F8B50446302686F311880025856049009F
:10CFE000032020702184606B85F31188216BA76A70
:10CFF00009680F60CA604B60E36A626A1B681A6066
:10D00000069ADA60079A5A604FF0804241F28737F9
:10D01000516A86F3118883699B0702D403689B05D4
:10D020002AD5536A5B1ABB4223D9236B1A6811684D
:10D0300021F01F0111601168CF07FCD4597A5A689A
:10D040003D238B401360E36A1A68116821F01F01C9
:10D0500011601168CE07FCD4597A5A683D238B4081
:10D0600013604FF0FF3005232370002383F31188F2
:10D07000F8BD85F31188CCE74368089943F4007341
:10D080004360036843F48073036004F11C00FFF7FE
:10D09000B3F900B3236B1A68116821F01F01116006
:10D0A0001168CD07FCD4597A5A683D238B40136030
:10D0B000E36A1A68116821F01F0111601168C9073D
:10D0C000FCD4597A5A683D238B401360421C0CBF34
:10D0D00005230223C8E70223C6E7F8B50446302635
:10D0E00086F3118800254900856041F00101042084
:10D0F00020702184606B85F31188E16A676A096892
:10D100000F60CA604FF080424B60516A41F287372E
:10D1100086F3118883699B0702D403689B051CD59D
:10D12000536A5B1ABB4215D9E36A1A68116821F089
:10D130001F0111601168C807FCD4597A5A683D2351
:10D140008B4013604FF0FF3005232370002383F3DF
:10D150001188F8BD85F31188DAE74368069943F42E
:10D1600000734360036843F4A063036004F11C0090
:10D17000FFF742F990B1E36A1A68116821F01F01C4
:10D1800011601168C907FCD4597A5A683D238B4055
:10D190001360421C0CBF05230223D6E70223D4E709
:10D1A000F0B400EB81044789E4680125A4698D404F
:10D1B0003D43458123600023A2606360E360F0BCCF
:10D1C00004F05CBD38B590F834300446002B42D0F2
:10D1D000063BDAB20F2A38D80F2B36D8DFE803F037
:10D1E0003B353508263635353535353535353B3B18
:10D1F00090F84A3090F84B20C56B43EA02239D42D9
:10D2000014D2C3681B8AB5FBF3F203FB12556DB948
:10D21000302383F311882B462A462946FEF7D6F998
:10D2200085F311880A2384F834300EE0142384F83F
:10D230003430302383F3118800231A4619462046E0
:10D24000FFF7AEFF002383F3118838BD036C03B1F1
:10D2500098470023E7E7636DD3F8002942F40012F2
:10D26000C3F80029D3F8002B42F40012C3F8002BB6
:10D2700063681B6813B10621204698470623D2E74E
:10D280004FF080422DE9F8431369D1680B40D9B2C1
:10D29000C9439B07116141D5302383F311882A4E7E
:10D2A00006F110074FF080493569D9F82400F46978
:10D2B000A968DFF89880031B8B423BD32B686A6810
:10D2C0000C44F46113605A6000232B6032694245BC
:10D2D00008BFC9F80C3083F31188EB682969284628
:10D2E0009847302383F311886A69002ADCD04FF015
:10D2F00080433069596A0B1B9A4237BFF26A121990
:10D3000042F00202F2622CBF521A0022404509D1BB
:10D31000284604F0EDFE002383F31188BDE8F843AE
:10D32000FDF7EABF9B1838BF1A4629463846FEF774
:10D33000D9FFB7E74545EED00C44211AF061A9604A
:10D34000FEF7E6FFE7E700BFF00F00200010002027
:10D3500008B5074B074A196801F03D019960536809
:10D360000BB190689847BDE80840FDF7C5BF00BF06
:10D37000006002406412002008B5084B1968890952
:10D3800001F03D018A019A60054AD3680BB110692A
:10D390009847BDE80840FDF7AFBF00BF00600240FE
:10D3A0006412002008B5084B1968090C01F03D0112
:10D3B0000A049A60054A53690BB190699847BDE821
:10D3C0000840FDF799BF00BF0060024064120020D2
:10D3D00008B5084B1968890D01F03D018A059A606E
:10D3E000054AD3690BB1106A9847BDE80840FDF7BC
:10D3F00083BF00BF006002406412002008B5074BE5
:10D40000074A596801F03D01D960536A0BB1906A2F
:10D410009847BDE80840FDF76FBF00BF00600240BD
:10D420006412002008B5084B5968890901F03D01D4
:10D430008A01DA60054AD36A0BB1106B9847BDE8E0
:10D440000840FDF759BF00BF006002406412002091
:10D4500008B5084B5968090C01F03D010A04DA606F
:10D46000054A536B0BB1906B9847BDE80840FDF738
:10D4700043BF00BF006002406412002008B5084BA3
:10D480005968890D01F03D018A05DA60054AD36BC0
:10D490000BB1106C9847BDE80840FDF72DBF00BFE9
:10D4A000006002406412002008B5074B074A196863
:10D4B00001F03D019960536C0BB1906C9847BDE849
:10D4C0000840FDF719BF00BF00640240641200204D
:10D4D00008B5084B1968890901F03D018A019A6075
:10D4E000054AD36C0BB1106D9847BDE80840FDF7B5
:10D4F00003BF00BF006402406412002008B5084B5F
:10D500001968090C01F03D010A049A60054A536D3F
:10D510000BB1906D9847BDE80840FDF7EDBE00BF28
:10D52000006402406412002008B5084B1968890D98
:10D5300001F03D018A059A60054AD36D0BB1106E6A
:10D540009847BDE80840FDF7D7BE00BF0064024021
:10D550006412002008B5074B074A596801F03D01E5
:10D56000D960536E0BB1906E9847BDE80840FDF747
:10D57000C3BE00BF006402406412002008B5084B1F
:10D580005968890901F03D018A01DA60054AD36EC4
:10D590000BB1106F9847BDE80840FDF7ADBE00BF66
:10D5A000006402406412002008B5084B5968090C59
:10D5B00001F03D010A04DA60054A536F0BB1906F28
:10D5C0009847BDE80840FDF797BE00BF00640240E1
:10D5D0006412002008B5084B5968890D01F03D011F
:10D5E0008A05DA60054AD36F13B1D2F880009847F4
:10D5F000BDE80840FDF780BE0064024064120020D0
:10D600002DE9F74FC2F3C31302F0030AC2F38009F6
:10D61000C2F3C108C2F3411E0193574600224FF0E6
:10D620000F0BCB0737D5019C02F007039B0004FAD0
:10D6300003FC01254468954024EA050444EA0904F2
:10D64000446085680324560004FA06F625EA0605B8
:10D6500045EA08058560C56825EA060545EA0E0520
:10D660000BFA03F3BAF1020F6FEA0604C5606FEA22
:10D6700003031BD1072A95BF056A456A2B402B403F
:10D6800095BF43EA0C0343EA0C0303624362036859
:10D690001C403C43046049081AD04FEA49094FEA4C
:10D6A00088084FEA8E0EBF000132BAE705682C40A9
:10D6B0003C43072A046095BF046A446A2340234020
:10D6C00095BF43EA0C0343EA0C0303624362E2E7BB
:10D6D00003B0BDE8F08F000038B5224B1B7813F083
:10D6E000010309D1204A194601332A2B51701170C8
:10D6F000917002F10302F7D11C4C23783BB91C480E
:10D7000001224FF40071FFF77BFF012323703023C8
:10D7100083F31188144C00252078FDF7EFF860782A
:10D72000FDF7ECF80135A078FDF7E8F82A2D04F1B3
:10D730000304F1D1DFED0F7A002300BF00BF00BF6B
:10D7400000BF00BF00BF013307EE103AB8EEC77A42
:10D75000B4EEE77AF1EE10FAEFD4002383F31188E8
:10D7600038BD00BF2C1A002001150020361A0020F9
:10D77000000002400000C44470B50F4B0F4E044639
:10D7800000252079F278B17828440635C0B2EDB290
:10D79000FDF74EF8FC2D03F10303F2D1FFF79CFFD8
:10D7A000A37813F0010F237914BF013303F1FF3382
:10D7B0005BB2237170BD00BF011500202C1A002040
:10D7C0002DE9F84F8378284FDFF8A49013F0010F6C
:10D7D000264B0CBF4FF0010A4FF0FF3A0026002500
:10D7E0005D701D709D705FFA8AFB4FF004083C78F5
:10D7F0006219D1B252B22A2A27DD2A2192FBF1F016
:10D8000001FB102252B2B2420BD199F8032099F8D1
:10D81000021099F8010008FB02F2C2F38702FDF73B
:10D8200007F85D44B8F10108EDB2E0D101362A2EC7
:10D8300003F10303D3D1FFF74FFFBAF1010F0CD16E
:10D8400044B929233B70BDE8F88F002ADBDA01F1E7
:10D850002A02D7E7013C3C70F5E70134B4FBF6F34C
:10D8600006FB1344F7E700BF101A00200115002043
:10D870002C1A00202DE9F0411D4B00211A460846C4
:10D8800001312A2950701070907002F10302F7D113
:10D89000184F194E4FF0000897F9004096F90050C4
:10D8A000444520DC45451EDB1448C2788178407829
:10D8B000FCF7BEFF08F10108B8F12A0F03F10303DA
:10D8C000EAD1FFF709FF0E4A13781D446DB21C44DC
:10D8D00064B2002D3C70357001DD282C01DD5B4207
:10D8E0001370BDE8F08100225A701A709A70E1E757
:10D8F0000115002054160020BC0D00202C1A002019
